:100000000C94EE000C9416010C9416010C9416013D
:100010000C9416010C9416010C9416010C94E8092A
:100020000C9416010C9416010C9416010C941601F4
:100030000C9416010C9416010C9416010C941601E4
:100040000C94EE160C9416010C9464140C949614F3
:100050000C9416010C9416010C9416010C941601C4
:100060000C9416010C9416011A13E312D912F7120C
:10007000EB12E712C712D012005EBCE2613FDD83D3
:10008000C29C7E20A3FD1F419DC3217FFCA2401E78
:100090005F01E3BD3E6082DC237D9FC1421CFEA068
:1000A000E1BF5D0380DE3C62BEE0025CDF81633D58
:1000B0007C22C09E1D43A1FF4618FAA427799BC548
:1000C00084DA3866E5BB5907DB856739BAE4065838
:1000D0001947A5FB7826C49A653BD987045AB8E628
:1000E000A7F91B45C6987A24F8A6441A99C7257B18
:1000F0003A6486D85B05E7B98CD2306EEDB3510F08
:100100004E10F2AC2F7193CD114FADF3702ECC92F7
:10011000D38D6F31B2EC0E50AFF1134DCE90722CE7
:100120006D33D18F0C52B0EE326C8ED0530DEFB1D7
:10013000F0AE4C1291CF2D73CA947628ABF51749C7
:100140000856B4EA6937D58B5709EBB536688AD4B7
:1001500095CB2977F4AA4816E9B7550B88D6346AA7
:100160002B7597C94A14F6A8742AC896154BA9F797
:10017000B6E80A54D7896B35000000080002010078
:100180000003040700000000000000000102040852
:1001900010204080010204081020010204081020F1
:1001A000040404040404040402020202020203031D
:1001B00003030303000000002300260029000000C1
:1001C0000000250028002B0000000000240027006C
:1001D0002A008906D70FE510C614BE0611241FBEDB
:1001E000CFEFD8E0DEBFCDBF12E0A0E0B1E0ECE998
:1001F000FDE302C005900D92A435B107D9F724E0C4
:10020000A4E5B2E001C01D92A13CB207E1F711E004
:10021000CAEDD1E004C02297FE010E94DA1AC23D65
:10022000D107C9F70E94DF160C94C11E0C94000080
:100230009C01FC01E653FF4F80819181680F791F7B
:10024000693C710530F4718360830296820F931FBD
:10025000089580E090E00895FC01848195810E94DA
:10026000991681E090E00895BF92CF92DF92EF92CD
:10027000FF920F931F93CF93DF9300D000D000D055
:10028000CDB7DEB77C016B0165E472E00E94DB153F
:10029000860183E0B82E6801F8018081803128F45E
:1002A00066E071E0C7010E9489160F5F1F4F40E1B1
:1002B000F6016081CE0101960E942916BE016F5F92
:1002C0007F4FC7010E948216CE0101960E946D15D4
:1002D000BA9409F7C70126960FB6F894DEBF0FBE91
:1002E000CDBFDF91CF911F910F91FF90EF90DF90E5
:1002F000CF90BF9008950F931F93CF93DF9300D0BB
:1003000000D000D0CDB7DEB726E040E855E260E08F
:1003100070E085E194E00E94021461E08DE00E94AB
:10032000101860E084E00E94101886E992E00E94B4
:10033000060C0EE712E04AE0B80186E992E00E945E
:10034000900B41E0B80189EA92E00E943F09B801B0
:10035000CE0101960E943401BE016F5F7F4F85E19F
:1003600094E00E945B15CE0101960E946D15085F16
:100370001F4F82E006391807F1F626960FB6F8945B
:10038000DEBF0FBECDBFDF91CF911F910F910895BA
:10039000CF92DF92EF92FF920F931F93CF93DF9351
:1003A000EC016B010A811B81E880F980B801C7016B
:1003B0000E949510FC01009741F4C7010E94560F5E
:1003C000FC01009741F01383028387E090E095835E
:1003D0008483D782C682CE01DF91CF911F910F9186
:1003E000FF90EF90DF90CF900895AF92BF92CF92A1
:1003F000DF92EF92FF920F931F93CF93DF93EC0165
:100400006A017B010A811B81A880B980B801C501FE
:100410000E949510FC01009741F4C5010E94560FFF
:10042000FC01009751F0138302838AE090E09583EA
:100430008483C682D782E086F186CE01DF91CF9198
:100440001F910F91FF90EF90DF90CF90BF90AF90F2
:100450000895CF93DF93CDB7DEB72A970FB6F89400
:10046000DEBF0FBECDBF1C821B8229EF31E03A8375
:1004700029837E836D839E012F5F3F4F38872F83B3
:100480001A861986BE01695F7F4F0E94B310898565
:100490009A852A960FB6F894DEBF0FBECDBFDF91C6
:1004A000CF910895CF92DF92EF92FF920F931F9317
:1004B000CF93DF93EC016B010A811B81E880F98007
:1004C000B801C7010E949510FC01009741F4C701D3
:1004D0000E94560FFC01009741F01383028382E0D3
:1004E00090E095838483D782C682CE01DF91CF913D
:1004F0001F910F91FF90EF90DF90CF900895AF92F2
:10050000BF92CF92DF92EF92FF920F931F93CF9300
:10051000DF93EC016A017B010A811B81A880B9800D
:10052000B801C5010E949510FC01009741F4C50176
:100530000E94560FFC01009751F01383028384E060
:1005400090E095838483C682D782E086F186CE01CF
:10055000DF91CF911F910F91FF90EF90DF90CF909F
:10056000BF90AF900895CF93DF93EB010E94790F76
:10057000009749F027E030E0FC0133832283D583E4
:10058000C48381E001C080E0DF91CF910895CF93D3
:10059000DF93FC01808191818330910534F48130B7
:1005A0009105DCF4892B99F12BC08530910584F0FD
:1005B000059731F582819381A481B5819C01AD01BC
:1005C00066277727CB01621B730B840B950B27C023
:1005D000628173818481958122C0C281D3812097F9
:1005E000B1F0BE0188E091E00E94421E892B99F093
:1005F0004AE050E060E070E0CE010E94FD1C0FC0B8
:1006000062817381848195810E94441908C060E0F1
:1006100070E0CB0104C061E070E080E090E021E098
:10062000672B682B692B09F420E0822FDF91CF9193
:100630000895AF92BF92CF92DF92EF92FF920F9305
:100640001F93CF93DF938C016B01FC01A280B380D9
:10065000E080F180B501C7010E949510EC01009780
:1006600041F4C7010E94560FEC010097B1F0BB8224
:10067000AA82F6014481558160817181F7018081F0
:1006800091810E942F1022E030E03D832C839F83D4
:100690008E83CE0104960E94C702C801DF91CF91DC
:1006A0001F910F91FF90EF90DF90CF90BF90AF9090
:1006B00008952F923F924F925F926F927F928F9206
:1006C0009F92AF92BF92CF92DF92EF92FF920F93E1
:1006D0001F93CF93DF93CDB7DEB7CC5DD1090FB6B3
:1006E000F894DEBF0FBECDBF8C0165E472E0CE0191
:1006F0008D529F4F0E94DB1581E092E09A8389839F
:10070000C553DF4F19821882CB5CD040CE010196D1
:100710000E94F50F7C016DE071E0C8010E94951008
:10072000009729F004960E9491126C0102C0C12C1E
:10073000D12CC353DF4FF982E882CD5CD0408BE1EE
:1007400091E0C153DF4F99838883CF5CD040B801DB
:10075000CE0183539F4F0E94C801F7018081918190
:100760000097E1F00E94E00F5C016AE271E0C701CE
:100770000E949510FC01009751F4C7010E94560F8A
:10078000FC01009771F02AE231E03383228326E0F6
:1007900030E035832483A682B78203C00DE014E0E5
:1007A00001C08501B601CE0183539F4F0E94DB1526
:1007B00063E371E0CE0183539F4F0E94BF16D82E92
:1007C000CE0183539F4F0E946D15DD2009F468C050
:1007D00086E992E00E94EA0C9EE7692E92E0792E6B
:1007E0002FE3822E21E0922E34E4A32E31E0B32EAB
:1007F000CE0101960E94F50F6C01B30186E992E0EB
:100800000E947B0D1B012C01B301CE0183539F4F2E
:100810000E943401C752DF4FD982C882C95DD040DF
:10082000C552DF4F99828882CB5DD040BE016353B1
:100830007F4FCE0187529F4F0E941903CE018353F1
:100840009F4F0E946D15C353DF4FD982C882CD5C84
:10085000D040C153DF4FB982A882CF5CD040B201F3
:10086000A101CE0183539F4F0E94F501B601C8013B
:100870000E94B302F8E06F0E711C86E9681682E0F0
:10088000780609F0B5CFBE016D527F4FC7010E94B7
:100890002902BE016D527F4F85E194E00E945B15F5
:1008A000CE018D529F4F0E946D15C452DF4F0FB67F
:1008B000F894DEBF0FBECDBFDF91CF911F910F9196
:1008C000FF90EF90DF90CF90BF90AF909F908F9070
:1008D0007F906F905F904F903F902F9008958F92F0
:1008E0009F92AF92BF92CF92DF92EF92FF920F93BF
:1008F0001F93CF93DF93CDB7DEB7C65DD1090FB697
:10090000F894DEBF0FBECDBF5C0165E472E0CE019E
:1009100083539F4F0E94DB1581E092E09A83898385
:10092000C553DF4F19821882CB5CD040CE010196AF
:100930000E94F50F8C01CE0101960E94F50F6C010B
:10094000CD52DF4F19830883C35DD0408BE191E026
:10095000CB52DF4F99838883C55DD040B601CE016D
:100960008D529F4F0E94C801CE0101960E94F50F43
:100970007C01CD52DF4FD982C882C35DD0408DE06B
:1009800091E0CB52DF4F99838883C55DD04060E50D
:1009900071E0CE018D529F4F0E9452024091B702EA
:1009A0005091B8026091B9027091BA02CD52DF4FF6
:1009B000D982C882C35DD04086E591E0CB52DF4F3B
:1009C00099838883C55DD040CE018D529F4F0E9490
:1009D0007F02F801808191810097E1F00E94E00F91
:1009E0004C016AE271E0C8010E949510FC01009779
:1009F00051F4C8010E94560FFC01009781F02AE2D1
:100A000031E03383228326E030E0358324838682FD
:100A1000978205C04DE0C42E44E0D42E01C064018D
:100A2000CD52DF4FF982E882C35DD0408FE391E081
:100A3000CB52DF4F99838883C55DD04060E571E07C
:100A4000CE018D529F4F0E945202CD52DF4FF9824C
:100A5000E882C35DD04080E691E0CB52DF4F9983BE
:100A60008883C55DD040B501CE018D529F4F0E9455
:100A70001903B701C6010E94B302BE0163537F4F41
:100A8000C8010E942902BE0163537F4F85E194E0B3
:100A90000E945B15CE0183539F4F0E946D15CA5271
:100AA000DF4F0FB6F894DEBF0FBECDBFDF91CF9101
:100AB0001F910F91FF90EF90DF90CF90BF90AF907C
:100AC0009F908F9008952F923F924F925F926F92D6
:100AD0007F928F929F92AF92BF92CF92DF92EF92CE
:100AE000FF920F931F93CF93DF93CDB7DEB7CC5D0B
:100AF000D1090FB6F894DEBF0FBECDBF65E472E03A
:100B0000CE018D529F4F0E94DB1581E092E09A83C7
:100B10008983C553DF4F19821882CB5CD040CE0148
:100B200001960E94F50F7C01CE0101960E94F50FFF
:100B30008C01C353DF4FF982E882CD5CD0408BE15A
:100B400091E0C153DF4F99838883CF5CD040B801D7
:100B5000CE0183539F4F0E94C801C353DF4F1983B7
:100B60000883CD5CD0408DE091E0C153DF4F998385
:100B70008883CF5CD04068E671E0CE0183539F4FFD
:100B80000E9452024091B7025091B8026091B9029E
:100B90007091BA02C353DF4F19830883CD5CD040F4
:100BA00086E591E0C153DF4F99838883CF5CD040C5
:100BB000CE0183539F4F0E947F02F7018081918174
:100BC0000097E1F00E94E00F6C016AE271E0C7015A
:100BD0000E949510FC01009751F4C7010E94560F26
:100BE000FC01009771F02AE231E03383228326E092
:100BF00030E035832483C682D78203C00DE014E041
:100C000001C0860186E992E00E94EA0C5EE7652E4B
:100C100052E0752E6FE3862E61E0962E74E4A72EC7
:100C200071E0B72EB30186E992E00E947B0D1B01B3
:100C30002C01CE0101960E94F50F6C01B301CE018B
:100C400083539F4F0E943401C752DF4FD982C8821D
:100C5000C95DD040C552DF4F99828882CB5DD040BC
:100C6000BE0163537F4FCE0187529F4F0E941903ED
:100C7000CE0183539F4F0E946D15C353DF4FD9821E
:100C8000C882CD5CD040C153DF4FB982A882CF5C0F
:100C9000D040B201A101CE0183539F4F0E94F501C4
:100CA000B601C8010E94B302F8E06F0E711C86E91C
:100CB000681682E0780609F0B5CFBE016D527F4F0D
:100CC000C7010E942902BE016D527F4F85E194E069
:100CD0000E945B15CE018D529F4F0E946D15C4522C
:100CE000DF4F0FB6F894DEBF0FBECDBFDF91CF91BF
:100CF0001F910F91FF90EF90DF90CF90BF90AF903A
:100D00009F908F907F906F905F904F903F902F902B
:100D1000089562E089EA92E00E941C0969EA72E0A3
:100D200086E992E00E94880A63E371E084E592E03C
:100D30000E94DB1568E771E08AE592E00E94DB150E
:100D400065E871E080E692E00E94DB156DE871E0F5
:100D500086E692E00E94DB1566E971E08CE692E09F
:100D60000E94DB1561EA71E082E792E00E94DB15E8
:100D70006FEA71E088E792E00C94DB15CF93DF9384
:100D8000CEE7D2E02697CE010E946D1582E0C435F1
:100D9000D807C1F7DF91CF910895CF92DF92EF92FC
:100DA000FF920F931F93CF93DF9300D000D000D01A
:100DB000CDB7DEB70E9438176093BB027093BC02B8
:100DC0008093BD029093BE020FEB12E085E194E0A8
:100DD0000E941F13892B21F5C090BB02D090BC024A
:100DE000E090BD02F090BE0288E8C80E83E1D81EF4
:100DF000E11CF11C0E943817C616D706E806F90652
:100E000028F762EC71E0CE0101960E94DB15CE015D
:100E100001960E946F04CE0101960E946D1522C0BA
:100E200085E194E00E9438138C37E1F0D8018D936E
:100E30008D01B3E00F331B0749F660ED71E0CE0181
:100E400001960E94DB15CE0101960E946F04CE012F
:100E500001960E946D1580E8EFEBF2E0DF011D9234
:100E60008A95E9F726960FB6F894DEBF0FBECDBF80
:100E7000DF91CF911F910F91FF90EF90DF90CF9076
:100E80000895CF93DF93CDB7DEB7CE5DD1090FB60E
:100E9000F894DEBF0FBECDBF68EC70E080E090E05C
:100EA0000E9467178091B7029091B802A091B90291
:100EB000B091BA020196A11DB11D8093B702909323
:100EC000B802A093B902B093BA0285E194E00E94FF
:100ED0001F13892B09F459C00E94CD0681E092E0CE
:100EE0009A838983C553DF4F19821882CB5CD04027
:100EF0004AE06FEB72E0CE0101960E940A10DC011D
:100F00002D913C91232BC1F56FEB72E0CE018752FE
:100F10009F4F0E94DB1561EE71E0CE018D529F4F15
:100F20000E94DB15BE0167527F4FCE018D529F4F4D
:100F30000E94AC16BC01CE0183539F4F0E9408163D
:100F4000CE0183539F4F0E946F04CE0183539F4F66
:100F50000E946D15CE018D529F4F0E946D15CE01DE
:100F600087529F4F0E946D1580E8EFEBF2E0DF01A2
:100F70001D928A95E9F702C00E94590380E8EFEBC1
:100F8000F2E0DF011D928A95E9F76091B702709156
:100F9000B8028091B9029091BA0224E630E040E0B4
:100FA00050E00E94B61A672B682B692B11F40E943F
:100FB0006305C252DF4F0FB6F894DEBF0FBECDBF40
:100FC000DF91CF910895FF920F931F93CF93DF93FB
:100FD000FC010081C181D281F8948981F02EF094C6
:100FE0008F21898378941DE7115029F182E090E0E8
:100FF0000E94A11788818023B9F3F8948A818F21F8
:101000008A838981802B8983789480EE91E00E9485
:10101000A117F89489818F21898386E490E00E944A
:10102000A1178881802311E009F010E078948AE903
:1010300091E00E94A117812FDF91CF911F910F9115
:10104000FF9008951F93CF93DF93FC011081C1811E
:10105000D281912F909560FF12C0F8948A818923E4
:101060008A838981812B89838AE090E00E94A1177D
:101070008A81812B8A83789487E390E011C0F89469
:101080008A8189238A838981812B898381E490E005
:101090000E94A1178A81812B8A83789485E090E051
:1010A000DF91CF911F910C94A1170F931F93CF93B2
:1010B000DF93FC011081C181D281F8948981812B59
:1010C00089838A81012F009580238A8383E090E0C1
:1010D0000E94A1178981802389838AE090E00E9481
:1010E000A117C881789485E390E00E94A1171C2382
:1010F00081E009F480E0DF91CF911F910F91089575
:10110000CF92DF92EF92FF920F931F93CF93DF93D3
:101110001F92CDB7DEB76C01E62E08E010E0FF2489
:10112000F39461E09F2D9E2109F460E0C60149839C
:101130000E942208FF0C0150110949810115110577
:1011400081F7411115C0F894D6011196ED91FC91EB
:10115000129791818C918095892381831196ED91CD
:10116000FC91129792818C91809589238283789447
:101170000F90DF91CF911F910F91FF90EF90DF9033
:10118000CF900895EF92FF920F931F93CF93DF9329
:101190008C01C8E0D0E0F12CEE24E394C8010E9459
:1011A00055088111FE28EE0C2197C1F78F2DDF9194
:1011B000CF911F910F91FF90EF900895CF92DF9202
:1011C000FF920F931F93CF93DF931F92CDB7DEB79C
:1011D0008C01F62E40E065E579830E948008CF2CD3
:1011E0007981D72E88E0F82EF60161916F0140E0F9
:1011F000C8010E948008FA94B9F70F90DF91CF914F
:101200001F910F91FF90DF90CF90089540E06CEC1C
:101210000C948008FC0113861586148627E030E0C4
:10122000DF01A20FB31F13961C922115310519F08F
:1012300021503109F5CF08951F93CF93DF93EC012F
:10124000162F60E0812F0E941018612F70E0FB01C3
:10125000E457FE4FE491E883FB01E056FE4FE49132
:10126000F0E0EE0FFF1FEC54FE4F859194919A83AE
:101270008983CE01DF91CF911F910C940A09AF921F
:10128000BF92CF92DF92EF92FF920F931F93CF9373
:10129000DF931F92CDB7DEB75C01D62EE72EFC019F
:1012A0008585811164C0C50149830E94E307498196
:1012B000811105C0F50113861586148671C044237B
:1012C00019F040E060EF02C040E06CEEC5010E9402
:1012D000800801E0F12CC12C11E0C5010E945508E5
:1012E000682FC50169830E9455086981613019F42E
:1012F0008130B9F433C02F2D30E068131BC0F501E5
:101300008385181730F4E20FF31F8381802349F49B
:1013100002C0181731F060E0193058F4F501148755
:1013200008C0F501EF0DF11D8381802B838361E0FF
:1013300009C0C12EF501E20FF31F8381902F909514
:1013400089238383C5010E9422081F5F000F11F4C7
:10135000F39401E0F7E0FF1508F0BFCF113438F047
:10136000F501C386C11009C081E0858706C0F5017B
:1013700013861586148680E013C0F50183818823C7
:10138000B1F3ED2DFE2D80E090E0D501A80FB91F3F
:1013900013962C912193019688309105B1F781E045
:1013A0000F90DF91CF911F910F91FF90EF90DF9001
:1013B000CF90BF90AF900895DC0180E0615038F08D
:1013C000ED91E827F0E0E858FF4F8491F7CF0895BA
:1013D0001F920F920FB60F9211242F933F934F93AA
:1013E0005F936F937F938F939F93AF93BF93EF938D
:1013F000FF9380913F030E9449182091420330914E
:1014000043032F5F3F4F3093430320934203909158
:101410000C04943618F095E09093400390914003AB
:101420009330B9F018F4923039F057C0943059F134
:10143000953009F44CC051C081114FC02091420336
:10144000309143032436310508F443C010920C0454
:101450001CC0813009F041C0E0910C0491E09E0F66
:1014600090930C04F0E02091420330914303EE0F7F
:10147000FF1FE15CFC4F36832583109243031092DB
:10148000420394E021C0811117C0E0910C0491E067
:101490009E0F90930C04F0E020914203309143039F
:1014A000EE0FFF1FE15CFC4F368325831092430350
:1014B0001092420393E008C020914203309143030D
:1014C0002536310550F095E09093400306C0811118
:1014D00004C0109243031092420390914103992358
:1014E00029F0811102C02D9A01C02D98FF91EF9132
:1014F000BF91AF919F918F917F916F915F914F912C
:101500003F912F910F900FBE0F901F901895089547
:10151000FC0187E89AE0928B818B76836583148245
:10152000108289E0818381E0828383830895CF9351
:10153000DF93EB0167E0CE010E94DC0991E02F818F
:10154000821390E0892FDF91CF910895CF92DF929F
:10155000EF92FF920F931F93CF93DF9300D0CDB7FD
:10156000DEB76C01F42EE52EFC018581968169833E
:101570007A830E94E30769817A81882311F1F60159
:10158000858196810E94DE0840E06EEBF601858140
:1015900096810E9480080F2D1E2D89E0F82EF601FD
:1015A000858196810E94C208F80181938F01FA9487
:1015B000B1F7F601858196810E94E30791E08130C1
:1015C00009F090E0892F0F900F90DF91CF911F913C
:1015D0000F91FF90EF90DF90CF900895CF93DF931E
:1015E000EA010E94A60A882351F068E0CE010E9419
:1015F000DC0991E02885821390E0892F01C080E00A
:10160000DF91CF910895EF92FF920F931F93CF93A5
:10161000DF93EC018B017A018D819E810E94E307AB
:10162000B8018D819E810E94DE0840E06EE48D81CC
:101630009E810E94800840E0F70162818D819E8139
:101640000E94800840E0F70163818D819E810E94A5
:101650008008F8018081803139F040E0F701648131
:101660008D819E810E9480088D819E810E94E3076A
:10167000B8018D819E810E94DE08488168E48D81D9
:101680009E810E94800864E170E080E090E00E940A
:1016900067178881882331F06AE070E080E090E08D
:1016A0000E9467178D819E81DF91CF911F910F91CD
:1016B000FF90EF900C94E307EF92FF921F93CF936C
:1016C000DF9300D0CDB7DEB77C01FC018581968128
:1016D00069837A830E94E30769817A81F7018581B2
:1016E00096810E94DE0840E064EBF70185819681D7
:1016F0000E948008F701858196810E945508182F65
:10170000F701858196810E94E30781E0111180E055
:101710000F900F90DF91CF911F91FF90EF90089560
:10172000EF92FF920F931F93CF93DF93CDB7DEB766
:101730002A970FB6F894DEBF0FBECDBF7C018B0198
:10174000242FAE014F5F5F4F2A870E94EE0A2A8541
:101750008823D1F0F80180818031C1F02B3041F035
:101760002C3021F02A3031F48FE305C08FE703C01D
:101770008FE501C08FE18D83AE014F5F5F4FB801F0
:10178000C7010E94030B02C080E001C081E02A96DD
:101790000FB6F894DEBF0FBECDBFDF91CF911F9182
:1017A0000F91FF90EF900895CF93DF93CDB7DEB701
:1017B00029970FB6F894DEBF0FBECDBFFB01208185
:1017C0002031D1F0AE014F5F5F4F0E94EE0A8823B7
:1017D00079F08D818F3351F020F48F3149F489E015
:1017E0000CC08F3539F08F3739F002C08AE005C060
:1017F00080E003C08BE001C08CE029960FB6F8941E
:10180000DEBF0FBECDBFDF91CF910895FF920F9342
:101810001F93CF93DF93CDB7DEB761970FB6F894E0
:10182000DEBF0FBECDBF8C01FC01858196810E9479
:101830000A09F801148241E0BE01665F7F4FF8019A
:10184000858196810E943F098823D1F1BE01665FA0
:101850007F4FC8010E94970A882369F3F8018081AD
:10186000811108C0BE01665F7F4FC8010E945C0BFA
:10187000811122C0AE014F5F5F4FBE01665F7F4F97
:10188000C8010E94A60AF801F180BE01665F7F4F81
:10189000C8010E94D40B8F1518F4F801818106C08D
:1018A000BE01665F7F4FC8010E94D40BF80181839F
:1018B00084818F5F8483BFCF81E0F8018083DACF9A
:1018C00061960FB6F894DEBF0FBECDBFDF91CF910A
:1018D0001F910F91FF900895CF93DF93CDB7DEB79F
:1018E00029970FB6F894DEBF0FBECDBFAE014F5F94
:1018F0005F4F0E94A60A81E09981911101C080E0AA
:1019000029960FB6F894DEBF0FBECDBFDF91CF9101
:1019100008958F929F92AF92BF92CF92DF92EF92F3
:10192000FF920F931F93CF93DF93EC018A016950CD
:10193000633048F4E62FF0E0EE0FFF1FED5FFD4F40
:101940008080918004C09EEE892E92E0992E011530
:10195000110501F18B818823E9F0888181111AC07A
:101960000E9438176B017C01AA2497FCA094BA2C22
:10197000B801CE010E946C0C81111FC00E94381763
:10198000681979098A099B096C157D058E059F05E3
:10199000A0F4EECFB401882777FD8095982FDF91D2
:1019A000CF911F910F91FF90EF90DF90CF90BF905C
:1019B000AF909F908F900C946717DF91CF911F91FC
:1019C0000F91FF90EF90DF90CF90BF90AF909F90DE
:1019D0008F900895CF93DF93EC018D819E810E94BB
:1019E000E3078D819E810E940609488164E48D8110
:1019F0009E810E9480088A81882341F040E050E067
:101A00006981CE01DF91CF910C94890CDF91CF9148
:101A10000895FA01208148E0249F900111248181DA
:101A200090E0982F8827990F990F990F282B392B21
:101A3000DB018C918031C1F4678170E08681AB015C
:101A4000481B5109CA019695982F88279795879525
:101A50000E94A21A60517109207F53E0220F331FA8
:101A60005A95E1F7260F371FC9010895EF92FF92AB
:101A70000F931F93CF93DF93CDB7DEB729970FB6A0
:101A8000F894DEBF0FBECDBF8C017B01AE014F5F6E
:101A90005F4F0E94EE0A882341F0AE014F5F5F4F17
:101AA000B701C8010E94090D02C080E894EE299692
:101AB0000FB6F894DEBF0FBECDBFDF91CF911F915F
:101AC0000F91FF90EF900895813824EE920774F003
:101AD000BC01882777FD8095982F0E94771920E018
:101AE00030E040E05CE30E942B1A089560E070E073
:101AF0008EEF92EC08950E94360D0C94640DFC015B
:101B000020812D3051F024F42950223030F505C0C9
:101B1000203219F02F3219F008950196F0CFFC0110
:101B200021812A3219F02F3279F008950296FC01B2
:101B30002081222321F32A3229F421812F3211F42A
:101B40000296DDCF0196F3CFFC013296CF012191B1
:101B50002223A9F22A30D1F7D2CF08950F931F93F1
:101B6000CF93DF931F92CDB7DEB78C01FC0182814A
:101B7000938169830E947F0DFC0120816981261376
:101B800008C001960E947F0DF8019383828381E053
:101B900001C080E00F90DF91CF911F910F910895C8
:101BA000CF93DF93EC01AA81BB814C813D812C91C5
:101BB000273219F4C42FD32F15C02232D9F3C42FE2
:101BC000D32FFD012AC03C3559F4FD0132961296FF
:101BD0003C91ADE0B2E06C91611110C0332339F15A
:101BE0003993DF01AE01FD01319611963C911197B9
:101BF0003323E9F03213E7CF319619C0631303C0E2
:101C000011963C91EBCF1296E6CF322F3F7D3154A7
:101C10003A3148F4299331962081AE0130ED320FEC
:101C20003A30C0F3F2CF33ED320F323098F3DA01AD
:101C30001D92EC012C813D81FB83EA83BD83AC8343
:101C4000C901DF91CF910895BF92CF92DF92EF92B9
:101C5000FF920F931F93CF93DF9300D000D000D05B
:101C6000CDB7DEB78C01FC01808191810E94F50F18
:101C70006C016BE7C8010E94AE0D882309F444C0D3
:101C80006DE7C8010E94AE0D81113CC086E0B82E00
:101C9000C8010E94D00D7C010097B1F16AE3C80130
:101CA0000E94AE0D882381F11A821982BE016F5FF6
:101CB0007F4FC8010E94960E882331F1B701C601FB
:101CC0000E949510009741F4C6010E94560F00979C
:101CD000D9F0FC01F382E282FE013196DC01149618
:101CE0008B2D01900D928A95E1F76DE7C8010E9456
:101CF000AE0D811107C06CE2C8010E94AE0D8111CA
:101D0000C7CF02C0C60102C081E194E026960FB69B
:101D1000F894DEBF0FBECDBFDF91CF911F910F9121
:101D2000FF90EF90DF90CF90BF900895FF920F93B8
:101D30001F93CF93DF93EC018B018E81882309F4ED
:101D400047C081508E838A819B810E947F0D9B8337
:101D50008A83FC0180818B3519F08B3761F01CC0C0
:101D6000CE010E94EF0EFC0120813181232B59F11D
:101D700026E030E00AC0CE010E94240EFC01208142
:101D80003181232B01F127E030E0F80131832083FA
:101D90009383828381E018C0873231F091E08232F0
:101DA00009F090E0F92E02C0FF24F394CE010E94C6
:101DB000D00D009741F0FF2019F022E030E0E5CF90
:101DC00021E030E0E2CF80E09E819F5F9E8301C0F2
:101DD00080E0DF91CF911F910F91FF900895DF92E6
:101DE000EF92FF920F931F93CF93DF9300D000D019
:101DF00000D0CDB7DEB78C01FC01808191810E94BB
:101E0000E00F7C016BE5C8010E94AE0D882379F1DB
:101E10006DE5C8010E94AE0D811127C096E0D92E54
:101E20001A821982BE016F5F7F4FC8010E94960E11
:101E30008823E9F0C7010E94790F0097C1F0FE01E5
:101E40003196DC0112968D2D01900D928A95E1F765
:101E50006DE5C8010E94AE0D811107C06CE2C8019A
:101E60000E94AE0D8111DCCF02C0C70102C08DE01F
:101E700094E026960FB6F894DEBF0FBECDBFDF917B
:101E8000CF911F910F91FF90EF90DF900895DB01AC
:101E9000109749F0ED91FC9111970190F081E02DA0
:101EA000BC01CD01099480E090E00895CF93DF93C9
:101EB000EC01688179818AE090E00E94470F0097E9
:101EC00029F0FC011182108215821482EA81FB81C3
:101ED000309751F0208131812115310511F0F90140
:101EE000F9CF9183808302C09B838A83DF91CF9156
:101EF0000895CF93DF93EC016881798188E090E0C9
:101F00000E94470F009729F0FC0111821082138272
:101F10001282EA81FB81309751F0208131812115B5
:101F2000310511F0F901F9CF9183808302C09B83C1
:101F30008A83DF91CF910895CF93DF93EC0188815D
:101F40009981DC01ED91FC910190F081E02D0995E2
:101F50002A813B81280F391F3B832A83DF91CF9150
:101F600008950F931F93CF93DF93EC018B016BE5E3
:101F7000C8010E949C0F0A80DB81C02D209779F058
:101F8000B801CE0102960E94B5120990D881C02DE9
:101F9000209729F06CE2C8010E949C0FF1CF6DE5FB
:101FA000C801DF91CF911F910F910C949C0F10925B
:101FB0000E0410920D041092100410920F04089554
:101FC000CF93DF93EC01BC0184E090E00E94470FC7
:101FD000FC01009729F0D183C0831382128202C0D2
:101FE0008DE094E0DF91CF910895CF93DF93EC01E2
:101FF000BC0184E090E00E94470FFC01009729F0AB
:10200000D183C0831382128202C081E194E0DF9108
:10201000CF910895CF93DF93CDB7DEB727970FB653
:10202000F894DEBF0FBECDBF9A8389836115710519
:1020300019F485E492E001C0CB019C838B837E83FD
:102040006D834F83CE0101960E94240E27960FB612
:10205000F894DEBF0FBECDBFDF91CF910895EF9210
:10206000FF920F931F93CF93DF9300D0CDB7DEB7CE
:102070008B014F5F5F4FDC01ED91FC910190F0818E
:10208000E02DBA0149835A8309957C0149815A811F
:10209000009719F0B8010E94391EC7010F900F90E8
:1020A000DF91CF911F910F91FF90EF900895FF92D4
:1020B0000F931F93CF93DF93EC018B016115710593
:1020C00091F468E172E0888199810E9455152A8116
:1020D0003B81280F391F3B832A83DF91CF911F91CA
:1020E0000F91FF90089562E2CE010E949C0FF801CB
:1020F00061918F01662351F0E9E0F2E0F080FF206A
:1021000099F39181961759F03296F8CF62E2CE0199
:10211000DF91CF911F910F91FF900C949C0F6CE574
:10212000CE010E949C0F6F2DDFCF0F931F93CF9393
:10213000DF938B01FC01C281D381209759F0B80154
:102140008A819B810E94421E892B39F00990D88197
:10215000C02DF3CF80E090E001C0CE01DF91CF91A0
:102160001F910F9108950F931F93CF93DF938C01CD
:10217000EB016BE7CE010E949C0FF80102811381F5
:1021800001151105D1F0F80162817381CE010E9421
:1021900057106AE3CE010E949C0FBE01C80104964D
:1021A0000E94B512F801008111810115110529F075
:1021B0006CE2CE010E949C0FE6CF6DE7CE01DF916D
:1021C000CF911F910F910C949C0F109212041092BA
:1021D000110410921404109213040895CF93DF9306
:1021E000EC01888199810E9455152A813B81280F35
:1021F000391F3B832A83DF91CF9108958F929F925D
:10220000AF92BF92DF92EF92FF920F931F93CF9303
:10221000DF93CDB7DEB766970FB6F894DEBF0FBE7B
:10222000CDBF8C0180E02AE0822E912CA12CB12C14
:10223000DD24D394D80EEE24E394F12CEC0EFD1E95
:10224000E80EF11CCB01BA01A50194010E94B61A57
:10225000CA01605DF7016083A901BC014115510508
:102260006105710511F08D2DE3CFDD2061F0DA9469
:10227000E1E0F0E0EC0FFD1FED0DF11D6081C80104
:102280000E949C0FF2CF66960FB6F894DEBF0FBE89
:10229000CDBFDF91CF911F910F91FF90EF90DF9015
:1022A000BF90AF909F908F9008954F925F926F92E2
:1022B0007F92AF92BF92CF92DF92EF92FF920F93F5
:1022C0001F93CF93DF93EC016A017B0159019A01BF
:1022D000AB01C701B6010E948E1A882319F06DE187
:1022E00072E02BC020E030E0A901C701B6010E94D6
:1022F000D81887FF08C06DE2CE010E949C0FF7FA44
:10230000F094F7F8F09426013701E89477F82FEF6E
:102310003FEF4FE75FE7C301B2010E948E1A8111C0
:102320001DC02FEF3FEF4FE75FE7C301B2010E94EF
:10233000D81818169CF461E272E0CE01DF91CF91BB
:102340001F910F91FF90EF90DF90CF90BF90AF90D3
:102350007F906F905F904F900C94EE1020E030E0F3
:102360004AE754E4C701B6010E94271A00E010E0D2
:1023700018160CF12FE632E143E85AE3C701B60123
:102380000E94D81887FF37C016C020E030E040E830
:102390005FE3C701B6010E94D81887FF15C001503E
:1023A000110920E030E040E251E4C701B6010E948B
:1023B0002B1A6B017C0120E030E0A901C701B601B6
:1023C0000E94D8188111E1CF20E030E040E251E4D2
:1023D000C701B6010E94271A18166CF40F5F1F4F31
:1023E00020E030E040E251E4C701B6010E94DC1871
:1023F0006B017C01E9CF712C60E070E080E09FE32D
:10240000272D30E02A153B0544F420E030E040E27F
:1024100051E40E94DC187394F3CF9B01AC01C70117
:10242000B6010E9474186B017C010E9449192B01AE
:102430003C010E9475199B01AC01C701B6010E94C5
:1024400073186B017C01B301A201CE010E94FE1042
:102450001A141B0424F46EE2CE010E949C0F1A147D
:102460001B041CF520E030E040E251E4C701B60156
:102470000E942B1A6B017C010E9449192B013C011F
:10248000AB01BC01CE010E94FE10C301B2010E944B
:1024900075199B01AC01C701B6010E9473186B014D
:1024A0007C0181E0A81AB108DACF17FF0EC06AE2FA
:1024B00072E0CE010E94EE1044275527401B510BBD
:1024C000662757FD6095762F0CC001151105D1F0D8
:1024D00065E6CE010E949C0FA801662757FD609516
:1024E000762FCE01DF91CF911F910F91FF90EF904A
:1024F000DF90CF90BF90AF907F906F905F904F90A4
:102500000C94FE10DF91CF911F910F91FF90EF90EF
:10251000DF90CF90BF90AF907F906F905F904F9083
:1025200008950F931F93CF93DF93EC0108811981D6
:102530000130110559F46A817B816115710531F013
:1025400088E192E00E94421E892B41F0015011095E
:102550000230110518F48A819B8102C080E090E06E
:10256000DF91CF911F910F9108950F931F93CF93F8
:10257000DF938C01EB01FC01208131812830310592
:1025800008F04AC0F901EC5CFF4F0C94D81AFC012A
:1025900082819381DF91CF911F910F910C94B10FA4
:1025A000FC0182819381DF91CF911F910F910C9457
:1025B000B310FC0162817381CE01DF91CF911F9135
:1025C0000F910C945710FC01628173811EC06DE263
:1025D000CE010E949C0FF801428153816481758174
:1025E000CE01DF91CF911F910F910C94FE10FC0151
:1025F0004281538164817581452B462B472B19F00D
:1026000068E071E002C06DE272E0CE01DF91CF912F
:102610001F910F910C94EE10285030E0FC01428184
:10262000538164817581CE01DF91CF911F910F910C
:102630000C945511DF91CF911F910F910895FC01DA
:10264000818D228D90E0805C9F4F821B91098F735A
:1026500099270895FC01918D828D981731F0828D14
:10266000E80FF11D858D90E008958FEF9FEF08959D
:10267000FC01918D828D981761F0828DDF01A80F8A
:10268000B11D5D968C91928D9F5F9F73928F90E0AC
:1026900008958FEF9FEF08958CEB94E1892B49F01B
:1026A00080E090E0892B29F00E94BC1481110C94E9
:1026B00000000895FC01848DDF01A80FB11DA35A0D
:1026C000BF4F2C91848D90E001968F739927848F52
:1026D000A689B7892C93A089B1898C9180648C9349
:1026E000938D848D981306C00288F389E02D808134
:1026F0008F7D80830895CF93DF93EC01888D8823AD
:10270000C9F0EA89FB89808185FD05C0A889B9895E
:102710008C9186FD0FC00FB607FCF5CF808185FF39
:10272000F2CFA889B9898C9185FFEDCFCE010E94A7
:102730005A13E7CFDF91CF910895CF92DF92FF92A6
:102740000F931F93CF93DF931F92CDB7DEB76C012A
:1027500081E0D60158968C9358975B969C915B9735
:102760005C968C915C97981307C05096ED91FC9104
:102770005197808185FD2EC0F601038D10E00F5F1B
:102780001F4F0F731127F02EF601848DF81211C020
:102790000FB607FCF9CFD6015096ED91FC915197F9
:1027A000808185FFF1CFC60169830E945A13698138
:1027B000EBCF838DE80FF11DE35AFF4F6083D60105
:1027C0005B960C935B975296ED91FC9153978081A9
:1027D00080620CC0D6015696ED91FC9157976083AC
:1027E0005096ED91FC91519780818064808381E0C7
:1027F00090E00F90DF91CF911F910F91FF90DF90AC
:10280000CF900895BF92CF92DF92EF92FF92CF9335
:10281000DF93EC016A017B01B22EE889F98982E03D
:102820008083411581EE580761057105A1F060E0D4
:1028300079E08DE390E0A70196010E94B61A21503D
:102840003109410951095695479537952795211525
:1028500080E1380798F0E889F989108260E874E827
:102860008EE190E0A70196010E94B61A215031092D
:10287000410951095695479537952795EC85FD8572
:102880003083EE85FF852083188EEC89FD89B08228
:10289000EA89FB89808180618083EA89FB89808164
:1028A00088608083EA89FB89808180688083EA89E7
:1028B000FB8980818F7D8083DF91CF91FF90EF90A6
:1028C000DF90CF90BF9008951F920F920FB60F9296
:1028D00011242F938F939F93EF93FF93E0912504FF
:1028E000F09126048081E0912B04F0912C0482FD6C
:1028F00012C0908180912E048F5F8F7320912F04DE
:10290000821751F0E0912E04F0E0EB5EFB4F958FC3
:1029100080932E0401C08081FF91EF919F918F9150
:102920002F910F900FBE0F901F9018951F920F922E
:102930000FB60F9211242F933F934F935F936F9392
:102940007F938F939F93AF93BF93EF93FF9385E113
:1029500094E00E945A13FF91EF91BF91AF919F9124
:102960008F917F916F915F914F913F912F910F9038
:102970000FBE0F901F90189585E194E00E941F13E1
:1029800021E0892B09F420E0822F08951092180489
:102990001092170488EE93E0A0E0B0E08093190451
:1029A00090931A04A0931B04B0931C0487E392E055
:1029B000909316048093150485EC90E09093220484
:1029C0008093210484EC90E090932404809323046A
:1029D00080EC90E0909326048093250481EC90E0B5
:1029E000909328048093270482EC90E090932A042B
:1029F0008093290486EC90E090932C0480932B0420
:102A000010922E0410922F04109230041092310470
:102A10000895CF92DF92EF92FF920F931F93CF937F
:102A2000DF937C016A01EB0100E010E00C151D054D
:102A300071F06991D701ED91FC910190F081E02D49
:102A4000C7010995892B19F00F5F1F4FEFCFC80100
:102A5000DF91CF911F910F91FF90EF90DF90CF907A
:102A600008956115710581F0DB010D900020E9F7F3
:102A7000AD0141505109461B570BDC01ED91FC9112
:102A80000280F381E02D099480E090E00895DC015C
:102A9000ED91FC91DB0114964D915C9115976D9130
:102AA0007C910280F381E02D09940C94311563E44C
:102AB00072E00C9431150F931F93CF93DF93EC01C9
:102AC0000E9447158C01CE010E945715800F911F5F
:102AD000DF91CF911F910F910895FC018081918129
:102AE0000C94A41BCF93DF93EC018881998100970C
:102AF00011F00E94A41B198218821D821C821B8265
:102B00001A82DF91CF9108950F931F93CF93DF9394
:102B1000EC018B016F5F7F4F888199810E94331C8C
:102B2000009731F0998388831B830A8381E001C079
:102B300080E0DF91CF911F910F910895CF93DF93A4
:102B4000EC0188819981892B29F08A819B818617E4
:102B5000970760F4CE010E948415882341F08C8190
:102B60009D81892B19F4E881F981108281E0DF9140
:102B7000CF910895EF92FF920F931F93CF93DF931E
:102B8000EC017B018A01BA010E949E15811104C0EB
:102B9000CE010E94721507C01D830C83B701888186
:102BA00099810E944B1ECE01DF91CF911F910F9111
:102BB000FF90EF900895FC0111821082138212821F
:102BC000158214826115710559F0FB0101900020F6
:102BD000E9F7AF0141505109461B570B0C94BA1548
:102BE0000895CF93DF93EC01FB018617970761F0FF
:102BF000608171816115710529F0448155810E94C0
:102C0000BA1502C00E947215CE01DF91CF910895CE
:102C1000FC011182108213821282158214820C949C
:102C2000F115CF93DF93EC016115710561F0FB01A4
:102C300001900020E9F7AF0141505109461B570BA5
:102C40000E94BA1502C00E947215CE01DF91CF9189
:102C500008950F931F93CF93DF93CDB7DEB72997D6
:102C60000FB6F894DEBF0FBECDBF8C01862FF801E2
:102C700011821082138212821582148250E0BE01EA
:102C80006F5F7F4F90E00E94521EBE016F5F7F4FCB
:102C9000C8010E94111629960FB6F894DEBF0FBE28
:102CA000CDBFDF91CF911F910F910895EF92FF92C9
:102CB0000F931F93CF93DF93EC017B010C811D8158
:102CC0006115710511F480E016C04115510591F0B0
:102CD000040F151FB8010E949E158823A1F32881B7
:102CE00039818C819D81B701820F931F0E944B1EF9
:102CF0001D830C8381E0DF91CF911F910F91FF9095
:102D0000EF900895FB0144815581608171810C949D
:102D100056166115710559F0FB0101900020E9F785
:102D2000AF0141505109461B570B0C94561680E0D9
:102D30000895CF93DF9300D0CDB7DEB769831A82B1
:102D400041E050E0BE016F5F7F4F0E9456160F902A
:102D50000F90DF91CF910895CF93DF93EC01FB01AA
:102D600044815581608171810E945616811103C092
:102D7000CE010E947215CE01DF91CF910895FC0122
:102D800024813581232B31F421E061157105A1F0F7
:102D9000FB0108C0FC01808191816115710531F44E
:102DA00021E0FC018081882339F005C00E94421E89
:102DB00021E0892B09F020E0822F089508950E94D8
:102DC000AC170E94DE160E947B01CCE4D3E10E9486
:102DD00041072097E1F30E944C13F9CF1F920F9205
:102DE0000FB60F9211242F933F938F939F93AF931E
:102DF000BF938091B3049091B404A091B504B091B5
:102E0000B6043091B20423E0230F2D3720F401964D
:102E1000A11DB11D05C026E8230F0296A11DB11DFD
:102E20002093B2048093B3049093B404A093B504A8
:102E3000B093B6048091B7049091B804A091B904FE
:102E4000B091BA040196A11DB11D8093B70490936F
:102E5000B804A093B904B093BA04BF91AF919F9105
:102E60008F913F912F910F900FBE0F901F9018954B
:102E70002FB7F8946091B3047091B4048091B504B5
:102E80009091B6042FBF08953FB7F8948091B7048E
:102E90009091B804A091B904B091BA0426B5A89B4A
:102EA00005C02F3F19F00196A11DB11D3FBF662738
:102EB000782F892F9A2F620F711D811D911D42E07D
:102EC000660F771F881F991F4A95D1F708958F9233
:102ED0009F92AF92BF92CF92DF92EF92FF926B01DF
:102EE0007C010E9444174B015C01C114D104E10430
:102EF000F104F1F00E9472180E94441768197909D0
:102F00008A099B09683E73408105910570F321E0B1
:102F1000C21AD108E108F10888EE880E83E0981EF5
:102F2000A11CB11CC114D104E104F10429F7DDCFC7
:102F3000FF90EF90DF90CF90BF90AF909F908F90D9
:102F400008958230910538F0880F991F880F991FD6
:102F500005970197F1F70895789484B5826084BD50
:102F600084B5816084BD85B5826085BD85B581608D
:102F700085BDEEE6F0E0808181608083E1E8F0E0ED
:102F80001082808182608083808181608083E0E81C
:102F9000F0E0808181608083E1EBF0E080818460FB
:102FA0008083E0EBF0E0808181608083EAE7F0E0FD
:102FB0008081846080838081826080838081816061
:102FC00080838081806880831092C100089583305F
:102FD00081F028F4813099F08230A1F00895873093
:102FE000A9F08830B9F08430D1F4809180008F7DD1
:102FF00003C0809180008F7780938000089584B50E
:103000008F7702C084B58F7D84BD08958091B00014
:103010008F7703C08091B0008F7D8093B0000895BA
:10302000CF93DF9390E0FC01E457FE4F2491FC0125
:10303000E056FE4F8491882349F190E0880F991F54
:10304000FC01E853FE4FA591B49182549E4FFC01C0
:10305000C591D4919FB7611108C0F8948C912095C7
:1030600082238C93888182230AC0623051F4F894C1
:103070008C91322F309583238C938881822B888387
:1030800004C0F8948C91822B8C939FBFDF91CF91D9
:103090000895CF93DF93282F30E0F901E858FE4FD1
:1030A0008491F901E457FE4FD491F901E056FE4FA7
:1030B000C491CC2391F081110E94E717EC2FF0E02E
:1030C000EE0FFF1FEC54FE4FA591B4912C912D23D0
:1030D00081E090E021F480E002C080E090E0DF91A8
:1030E000CF91089508955058BB27AA270ED075C1D7
:1030F00066D130F06BD120F031F49F3F11F41EF413
:103100005BC10EF4E095E7FB51C1E92F77D180F365
:10311000BA17620773078407950718F071F49EF5D4
:103120008FC10EF4E0950B2EBA2FA02D0B01B90123
:1031300090010C01CA01A0011124FF27591B99F02D
:10314000593F50F4503E68F11A16F040A22F232F39
:10315000342F4427585FF3CF469537952795A79589
:10316000F0405395C9F77EF41F16BA0B620B730B30
:10317000840BBAF09150A1F0FF0FBB1F661F771FA1
:10318000881FC2F70EC0BA0F621F731F841F48F456
:10319000879577956795B795F7959E3F08F0B3CFDC
:1031A0009395880F08F09927EE0F979587950895C6
:1031B000D9D008F481E008950CD00FC107D140F0B8
:1031C000FED030F021F45F3F19F0F0C0511139C149
:1031D000F3C014D198F39923C9F35523B1F3951B88
:1031E000550BBB27AA2762177307840738F09F5F28
:1031F0005F4F220F331F441FAA1FA9F333D00E2E97
:103200003AF0E0E830D091505040E695001CCAF703
:1032100029D0FE2F27D0660F771F881FBB1F2617C8
:1032200037074807AB07B0E809F0BB0B802DBF019B
:10323000FF2793585F4F2AF09E3F510568F0B6C0B4
:1032400000C15F3FECF3983EDCF386957795679578
:10325000B795F7959F5FC9F7880F911D969587954C
:1032600097F90895E1E0660F771F881FBB1F62176B
:1032700073078407BA0720F0621B730B840BBA0B29
:10328000EE1F88F7E095089504D06894B111D9C075
:103290000895BCD088F09F5790F0B92F9927B75167
:1032A000A0F0D1F0660F771F881F991F1AF0BA950A
:1032B000C9F712C0B13081F0C3D0B1E00895C0C0E9
:1032C000672F782F8827B85F39F0B93FCCF3869500
:1032D00077956795B395D9F73EF49095809570955D
:1032E00061957F4F8F4F9F4F0895E89409C097FBDA
:1032F0003EF490958095709561957F4F8F4F9F4FCD
:103300009923A9F0F92F96E9BB279395F695879510
:1033100077956795B795F111F8CFFAF4BB0F11F4D3
:1033200060FF1BC06F5F7F4F8F4F9F4F16C088237A
:1033300011F096E911C0772321F09EE8872F762FB0
:1033400005C0662371F096E8862F70E060E02AF0F1
:103350009A95660F771F881FDAF7880F96958795DD
:1033600097F90895990F0008550FAA0BE0E8FEEFB2
:1033700016161706E807F907C0F012161306E40739
:10338000F50798F0621B730B840B950B39F40A2632
:1033900061F0232B242B252B21F408950A2609F410
:1033A000A140A6958FEF811D811D089597F99F6714
:1033B00080E870E060E008959FEF80EC08950024BD
:1033C0000A941616170618060906089500240A948A
:1033D00012161306140605060895092E0394000C10
:1033E00011F4882352F0BB0F40F4BF2B11F460FF9F
:1033F00004C06F5F7F4F8F4F9F4F089557FD9058C8
:10340000440F551F59F05F3F71F04795880F97FBA8
:10341000991F61F09F3F79F0879508951216130662
:103420001406551FF2CF4695F1DF08C01616170691
:103430001806991FF1CF86957105610508940895C6
:10344000E894BB2766277727CB0197F908958ADF91
:1034500008F48FEF08950BD0C0CFB1DF28F0B6DFAE
:1034600018F0952309F0A2CFA7CF1124EACFC6DF29
:10347000A0F3959FD1F3950F50E0551F629FF00187
:10348000729FBB27F00DB11D639FAA27F00DB11DE0
:10349000AA1F649F6627B00DA11D661F829F222769
:1034A000B00DA11D621F739FB00DA11D621F839FF0
:1034B000A00D611D221F749F3327A00D611D231FC6
:1034C000849F600D211D822F762F6A2F11249F5714
:1034D00050408AF0E1F088234AF0EE0FFF1FBB1F37
:1034E000661F771F881F91505040A9F79E3F5105D6
:1034F00070F05CCFA6CF5F3FECF3983EDCF386958F
:1035000077956795B795F795E7959F5FC1F7FE2B80
:10351000880F911D9695879597F9089523DF880B5D
:10352000990B0895DB018F939F930E94DE1ABF9140
:10353000AF91A29F800D911DA39F900DB29F900D02
:103540001124089597FB072E16F4009407D077FDF9
:1035500009D00E94E91A07FC05D03EF490958195A8
:103560009F4F0895709561957F4F0895A1E21A2E9F
:10357000AA1BBB1BFD010DC0AA1FBB1FEE1FFF1F17
:10358000A217B307E407F50720F0A21BB30BE40B67
:10359000F50B661F771F881F991F1A9469F76095AE
:1035A0007095809590959B01AC01BD01CF01089568
:1035B000EE0FFF1F0590F491E02D09940E94FD1A73
:1035C000A59F900DB49F900DA49F800D911D112477
:1035D0000895AA1BBB1B51E107C0AA1FBB1FA6175A
:1035E000B70710F0A61BB70B881F991F5A95A9F7AC
:1035F00080959095BC01CD010895A29FB001B39F25
:10360000C001A39F700D811D1124911DB29F700DEB
:10361000811D1124911D0895CF93DF938230910570
:1036200010F482E090E0E091BF04F091C00420E04B
:1036300030E0A0E0B0E0309739F140815181481787
:103640005907B8F04817590771F482819381109790
:1036500029F013969C938E9312972CC09093C004DC
:103660008093BF0427C02115310531F0421753075D
:1036700018F0A901DB0101C0EF019A01BD01DF01D2
:103680000280F381E02DD7CF21153105F9F0281BF9
:10369000390B2430310580F48A819B8161157105D5
:1036A00021F0FB019383828304C09093C004809334
:1036B000BF04FE01329644C0FE01E20FF31F819366
:1036C000919322503109398328833AC02091BD0457
:1036D0003091BE04232B41F420910201309103016B
:1036E0003093BE042093BD0420910001309101016C
:1036F0002115310541F42DB73EB740910401509199
:103700000501241B350BE091BD04F091BE04E217C6
:10371000F307A0F42E1B3F0B2817390778F0AC01F4
:103720004E5F5F4F2417350748F04E0F5F1F5093D1
:10373000BE044093BD048193919302C0E0E0F0E0A9
:10374000CF01DF91CF910895CF93DF93009709F4D4
:1037500087C0FC01329713821282C091BF04D091BE
:10376000C004209781F420813181280F391F809176
:10377000BD049091BE048217930779F5F093BE04BF
:10378000E093BD046DC0DE0120E030E0AE17BF075E
:1037900050F412964D915C9113979D01411551057E
:1037A00009F1DA01F3CFB383A28340815181840F01
:1037B000951F8A179B0771F48D919C911197840F27
:1037C000951F02969183808312968D919C911397F9
:1037D000938382832115310529F4F093C004E0938B
:1037E000BF043EC0D9011396FC93EE9312974D91FE
:1037F0005D91A40FB51FEA17FB0779F480819181D1
:10380000840F951F0296D90111969C938E93828105
:10381000938113969C938E931297E0E0F0E08A8157
:103820009B81009719F0FE01EC01F9CFCE010296C1
:1038300028813981820F931F2091BD043091BE04ED
:103840002817390769F4309729F41092C0041092B0
:10385000BF0402C013821282D093BE04C093BD0481
:10386000DF91CF910895A0E0B0E0E9E3FCE10C9492
:103870008E1EEC01CB01209719F40E940C1BB8C0DE
:10388000FE01E60FF71F9E0122503109E217F307F0
:1038900008F4ACC0D9010D911C91119706171707B8
:1038A000B8F00530110508F49FC0A8014450510933
:1038B0004617570708F498C002501109061B170B4A
:1038C000019311936D937C93CF010E94A41B8CC034
:1038D0005B01A01AB10A4E01800E911EA091BF0497
:1038E000B091C004612C712C60E070E0109709F475
:1038F00049C0A815B905C9F5ED90FC90119767016D
:1039000042E0C40ED11CCA14DB0478F147018A18C6
:103910009B08640142E0C40ED11C1296BC90129721
:103920001396AC91B5E0CB16D10440F0B282A383DC
:1039300091828082D9018D939C9309C00E5F1F4FA5
:103940000E0D1F1DF90111830083EB2DFA2F611558
:10395000710531F0DB011396FC93EE93129744C08E
:10396000F093C004E093BF043FC06D917C91119728
:103970006616770608F43B01BD0112960D90BC91C6
:10398000A02DB4CF6091BD047091BE046815790577
:10399000E9F468167906D0F44091000150910101D4
:1039A0004115510541F44DB75EB760910401709126
:1039B0000501461B570BE417F507C0F4F093BE044E
:1039C000E093BD04F901918380830EC00E940C1B1B
:1039D0007C01009759F0A801BE010E94391ECE015A
:1039E0000E94A41BC70104C0CE0102C080E090E089
:1039F000CDB7DEB7EEE00C94AA1E2F923F925F92F5
:103A00006F927F928F929F92AF92BF92CF92DF92EE
:103A1000EF92FF920F931F93CF93DF938B01EA01F5
:103A20006115710521F0DB018C9311969C93209711
:103A300039F09E01225031092332310508F0FBC0D4
:103A40007C016701BFEFCB1ADB0A5601F7016080EA
:103A5000862D90E00E94311E892B11F07601F1CF66
:103A6000FDE26F120AC0570182E0A80EB11CD70117
:103A700011966C90772473940BC0BBE26B1207C055
:103A80005701E2E0AE0EB11CD70111966C90712C7B
:103A9000CE018F7E892B89F4B0E36B1222C0F50131
:103AA00080818F7D883541F56180F2E0AF0EB11CD9
:103AB000872D8260782EC0E1D0E0C830D105F1F0CA
:103AC0004CF4C230D10511F5C12CD12CE12CB0E45D
:103AD000FB2E2FC0CA30D10531F0C031D10521F104
:103AE00015C0209751F7CAE0D0E0ACECCA2EDC2C10
:103AF000EC2CACE0FA2E1DC02097F9F6C8E0D0E01F
:103B0000C12CD12CE12CF0E1FF2E13C060E070E05D
:103B100080E090E89E01442737FD4095542F0E9495
:103B2000B61A69017A0105C0C12CD12CE12CE8E05C
:103B3000FE2EF50160E020E030E0A9014E01AA244C
:103B400097FCA094BA2C1F0170ED572E560CA9E0DB
:103B5000A51570F48FEB860D8A3118F499EC592E67
:103B600006C08FE9860D8A3130F589EA582E560C49
:103B7000852D90E08C179D07F4F467FD18C0C216E0
:103B8000D306E406F50680F0C501B4010E94921A3E
:103B90009B01AC01250D311D411D511D2130310509
:103BA0004105B0E85B0710F06FEF01C061E03196AE
:103BB000D1016C90C8CF872D81700115110571F06E
:103BC000662329F03197D801ED93FC9307C071FE6D
:103BD00019C03297D801ED93FC9314C067FF12C04F
:103BE000882329F020E030E040E050E804C02FEFC7
:103BF0003FEF4FEF5FE782E290E09093BC04809349
:103C0000BB0416C0882341F050954095309521950E
:103C10003F4F4F4F5F4F0CC057FF0AC082E290E00A
:103C20009093BC048093BB042FEF3FEF4FEF5FE70F
:103C3000B901CA0104C060E070E080E090E0DF916B
:103C4000CF911F910F91FF90EF90DF90CF90BF9099
:103C5000AF909F908F907F906F905F903F902F904C
:103C60000895911144C0803219F089508550D0F7E1
:103C70000895FB01DC0102C001900D9241505040BB
:103C8000D8F70895FB01DC018D9101908019011096
:103C9000D9F3990B0895FB01DC0101900D920020EE
:103CA000E1F708954532510520F4423010F00C94AC
:103CB0005D1EFB011082CB010895BB27FB01552738
:103CC000AA27880F991FAA1FA41710F0A41B839579
:103CD0005051B9F7A05DAA3308F0A95DA1930097F0
:103CE00079F7B111B1931192CB010C947A1E9927F7
:103CF00088270895DC01FC01672F71917723E1F794
:103D0000329704C07C916D9370836291AE17BF07A8
:103D1000C8F308952F923F924F925F926F927F92D5
:103D20008F929F92AF92BF92CF92DF92EF92FF92CB
:103D30000F931F93CF93DF93CDB7DEB7CA1BDB0B77
:103D40000FB6F894DEBF0FBECDBF09942A8839881C
:103D500048885F846E847D848C849B84AA84B98423
:103D6000C884DF80EE80FD800C811B81AA81B9812F
:103D7000CE0FD11D0FB6F894DEBF0FBECDBFED0143
:103D8000089511E0CAEDD1E004C0FE010E94DA1AE4
:0C3D90002296CC3DD107C9F7F894FFCF74
:103D9C000000C1048000300074727565007265719A
:103DAC0075657374456E74697479006172647569B4
:103DBC006E6F5265717565737400726573706F6E9A
:103DCC00736500746865726D6F6D65746572006EF5
:103DDC00616D650074656D706572617475726500F6
:103DEC006572726F720074696D657374616D7000C9
:103DFC006D657373616765006175746F6D6174696E
:103E0C006353746174757300737461727448656183
:103E1C0074696E67006C696768744F6E006C6967D3
:103E2C0068744F6666006C69676874537461746576
:103E3C00006578706F73654D6574686F64730067A7
:103E4C0065745761746572576173746553746174EA
:103E5C006500746F6F206D7563682074696D650003
:103E6C00636F6D6D616E6420746F6F206C6F6E6725
:103E7C00006661696C20706172736520636F6D6D93
:103E8C00616E642D00000000002C0109150000007B
:103E9C000018015E00BC00770122225C5C6208669F
:103EAC000C6E0A720D7409006E756C6C004E614ECE
:103EBC0000496E66696E69747900652D0066616CE7
:103ECC00736500000000009D1309151F1338132A99
:103EDC00137B130D0A006E616E00696E66006F76BF
:043EEC0066002E003E
:00000001FF
