:100000000C94EE000C9416010C9416010C9416013D
:100010000C9416010C9416010C9416010C94720B9E
:100020000C9416010C9416010C9416010C941601F4
:100030000C9416010C9416010C9416010C941601E4
:100040000C9480180C9416010C94EE150C94201648
:100050000C9416010C9416010C9416010C941601C4
:100060000C9416010C941601A4146D1463148114DD
:100070007514711451145A14005EBCE2613FDD83A3
:10008000C29C7E20A3FD1F419DC3217FFCA2401E78
:100090005F01E3BD3E6082DC237D9FC1421CFEA068
:1000A000E1BF5D0380DE3C62BEE0025CDF81633D58
:1000B0007C22C09E1D43A1FF4618FAA427799BC548
:1000C00084DA3866E5BB5907DB856739BAE4065838
:1000D0001947A5FB7826C49A653BD987045AB8E628
:1000E000A7F91B45C6987A24F8A6441A99C7257B18
:1000F0003A6486D85B05E7B98CD2306EEDB3510F08
:100100004E10F2AC2F7193CD114FADF3702ECC92F7
:10011000D38D6F31B2EC0E50AFF1134DCE90722CE7
:100120006D33D18F0C52B0EE326C8ED0530DEFB1D7
:10013000F0AE4C1291CF2D73CA947628ABF51749C7
:100140000856B4EA6937D58B5709EBB536688AD4B7
:1001500095CB2977F4AA4816E9B7550B88D6346AA7
:100160002B7597C94A14F6A8742AC896154BA9F797
:10017000B6E80A54D7896B35000000080002010078
:100180000003040700000000000000000102040852
:1001900010204080010204081020010204081020F1
:1001A000040404040404040402020202020203031D
:1001B00003030303000000002300260029000000C1
:1001C0000000250028002B0000000000240027006C
:1001D0002A00160861116F125016510811241FBE13
:1001E000CFEFD8E0DEBFCDBF12E0A0E0B1E0E0EDA0
:1001F000F0E402C005900D92A632B107D9F724E0D1
:10020000A6E2B2E001C01D92A53BB207E1F711E002
:10021000CAEDD1E004C02297FE010E946C1CC23DD1
:10022000D107C9F70E9471180C945B200C94000050
:1002300081E090E008959C01FC01EE56FE4F808124
:100240009181680F791F613941E0740730F471833F
:1002500060830296820F931F089580E090E00895D6
:100260009C01FC01E25DFE4F80819181680F791F46
:100270006D3241E0740730F4718360830296820F1F
:10028000931F089580E090E00895CF93DF9386E870
:1002900092E00E94900DC6E5D2E049E0BE0186E8FA
:1002A00092E00E941A0D41E0BE0189E992E00E94AD
:1002B000C90A289682E0C638D80779F786E892E01E
:1002C000DF91CF910C94740E26E040E855E260E097
:1002D00070E089E094E00E948C1561E08DE00E945E
:1002E000A21960E084E00E94A2190C944501CF920B
:1002F000DF92EF92FF92C090AF02D090B002E090F8
:10030000B102F090B20280E7C80E87E1D81EE11C6E
:10031000F11C0E94CA1821E0C616D706E806F906A5
:1003200008F020E0822FFF90EF90DF90CF900895AB
:10033000CF92DF92EF92FF920F931F93CF93DF93B1
:1003400000D000D000D0CDB7DEB77C016B0167E1F3
:1003500072E00E945717860186E0D82EF80161915D
:100360008F0140E1CE0101960E94A517BE016F5F8B
:100370007F4FC7010E94FE17CE0101960E94E91629
:10038000DA9461F7C70126960FB6F894DEBF0FBE68
:10039000CDBFDF91CF911F910F91FF90EF90DF9034
:1003A000CF900895CF92DF92EF92FF920F931F9319
:1003B000CF93DF93EC016B010A811B81E880F98008
:1003C000B801C7010E941F12FC01009741F4C70148
:1003D0000E94E010FC01009741F01383028387E044
:1003E00090E095838483D782C682CE01DF91CF913E
:1003F0001F910F91FF90EF90DF90CF900895AF92F3
:10040000BF92CF92DF92EF92FF920F931F93CF9301
:10041000DF93EC016A017B010A811B81A880B9800E
:10042000B801C5010E941F12FC01009741F4C501EB
:100430000E94E010FC01009751F0138302838AE0D0
:1004400090E095838483C682D782E086F186CE01D0
:10045000DF91CF911F910F91FF90EF90DF90CF90A0
:10046000BF90AF900895CF92DF92EF92FF920F93DB
:100470001F93CF93DF93EC016B010A811B81E8800E
:10048000F980B801C7010E941F12FC01009741F4D6
:10049000C7010E94E010FC01009741F01383028322
:1004A00082E090E095838483D782C682CE01DF917B
:1004B000CF911F910F91FF90EF90DF90CF90089513
:1004C000AF92BF92CF92DF92EF92FF920F931F9362
:1004D000CF93DF93EC016A017B010A811B81A88025
:1004E000B980B801C5010E941F12FC01009741F4B8
:1004F000C5010E94E010FC01009751F013830283B4
:1005000084E090E095838483C682D782E086F1867A
:10051000CE01DF91CF911F910F91FF90EF90DF906F
:10052000CF90BF90AF900895CF93DF9300D000D0CD
:10053000CDB7DEB77A8369831C821B82BE016F5FF1
:100540007F4F0E943D128B819C810F900F900F90E6
:100550000F90DF91CF9108950F931F93CF93DF9367
:1005600000D000D000D0CDB7DEB78B0167E172E0DC
:10057000CE0101960E94571769E074E0C8010E94FD
:100580009402CE0101960E94E91626960FB6F894C1
:10059000DEBF0FBECDBFDF91CF911F910F910895A8
:1005A000CF93DF93EB010E940311009749F027E0FE
:1005B00030E0FC0133832283D583C48381E001C012
:1005C00080E0DF91CF910895CF93DF93FC0180818C
:1005D00091818330910534F481309105DCF4892BCD
:1005E00099F12BC08530910584F0059731F5828112
:1005F0009381A481B5819C01AD0166277727CB014A
:10060000621B730B840B950B27C0628173818481FD
:10061000958122C0C281D3812097B1F0BE018BE2C7
:1006200091E00E94DC1F892B99F04AE050E060E0E5
:1006300070E0CE010E948F1E0FC0628173818481A1
:1006400095810E94D61A08C060E070E0CB0104C01A
:1006500061E070E080E090E021E0672B682B692B7F
:1006600009F420E0822FDF91CF910895AF92BF92DD
:10067000CF92DF92EF92FF920F931F93CF93DF936E
:100680008C016B01FC01A280B380E080F180B50198
:10069000C7010E941F12EC01009741F4C7010E949C
:1006A000E010EC010097B1F0BB82AA82F601448110
:1006B000558160817181F701808191810E94B9111A
:1006C00022E030E03D832C839F838E83CE0104960D
:1006D0000E94E402C801DF91CF911F910F91FF901A
:1006E000EF90DF90CF90BF90AF9008954F925F92C0
:1006F0006F927F92AF92BF92CF92DF92EF92FF9272
:100700000F931F93CF93DF93CDB7DEB7C054D14083
:100710000FB6F894DEBF0FBECDBF8C010E9445011D
:1007200067E172E0CE01895C9E4F0E9457178DEC05
:1007300091E09A838983C15DDE4F19821882CF527E
:10074000D140CE0101960E947F117C018091100161
:1007500090911101CF5CDE4FF982E882C153D14004
:10076000CD5CDE4F99838883C353D140B801CE015D
:100770008F5C9E4F0E94D2010091180110911901C7
:10078000F701808191810097C9F00E946A116C0184
:10079000B801C7010E941F12FC01009741F4C70174
:1007A0000E94E010FC01009761F01383028326E0B1
:1007B00030E035832483C682D78203C001E014E091
:1007C00001C0860196E5C92E92E0D92ECE01019690
:1007D0000E947F115C01B60186E892E00E94050F3D
:1007E0002B013C01B601CE018F5C9E4F0E94980107
:1007F0008091140190911501C35CDE4FB982A882EB
:10080000CD53D140C15CDE4F99838883CF53D14013
:10081000BE016F5C7E4FCE01835C9E4F0E9436030B
:10082000CE018F5C9E4F0E94E9168091120190913B
:100830001301CF5CDE4FB982A882C153D140CD5C99
:10084000DE4F99838883C353D140B301A201CE0107
:100850008F5C9E4F0E94FF01B501C8010E94D0022B
:10086000F8E0CF0ED11C86E8C81682E0D80609F061
:10087000ADCFBE01695C7E4FCE018F5C9E4F0E9462
:100880008417B701CE018F5C9E4F0E94AC02CE014F
:100890008F5C9E4F0E94E916CE01895C9E4F0E949C
:1008A000E916C05CDE4F0FB6F894DEBF0FBECDBFB9
:1008B000DF91CF911F910F91FF90EF90DF90CF903C
:1008C000BF90AF907F906F905F904F9008958F9200
:1008D0009F92AF92BF92CF92DF92EF92FF920F93CF
:1008E0001F93CF93DF93CDB7DEB7C654D1400FB679
:1008F000F894DEBF0FBECDBF8C0167E172E0CE0180
:10090000835C9E4F0E9457170E9445018DEC91E039
:100910009A838983C15DDE4F19821882CF52D140FC
:10092000CE0101960E947F115C018091100190918F
:100930001101CF5CDE4FB982A882C153D140CD5C9A
:10094000DE4F99838883C353D140B801CE018F5CB9
:100950009E4F0E94D20160910E0170910F01C8015B
:100960000E941F12009721F004960E941B1402C0DF
:1009700080E090E0BC01CE01895C9E4F0E94571739
:100980000091180110911901F50180819181009762
:10099000C9F00E946A117C01B801C5010E941F12B2
:1009A000FC01009741F4C5010E94E010FC01009792
:1009B00061F01383028326E030E035832483E682EE
:1009C000F78203C001E014E001C08701CE01019667
:1009D0000E947F114C0126E5E22E22E0F22EB701A3
:1009E000CE018F5C9E4F0E949801BE01695C7E4FD4
:1009F000CE018F5C9E4F0E943718882309F440C0B7
:100A0000B70186E892E00E94050F6B017C0180919E
:100A1000140190911501CD5BDE4F99828882C354F9
:100A2000D140CB5BDE4F99838883C554D140BE0152
:100A30006F5C7E4FCE018D5B9E4F0E94360380918E
:100A4000120190911301CD5BDE4F99828882C354CD
:100A5000D140CB5BDE4F99838883C554D140B70129
:100A6000A601CE018D5B9E4F0E94FF01B401C8011B
:100A70000E94D002CE018F5C9E4F0E94E9160EC0EC
:100A8000CE018F5C9E4F0E94E916F8E0EF0EF11C3C
:100A900086E8E81682E0F80609F0A1CFBE01635CA3
:100AA0007E4FCE018F5C9E4F0E948417B501CE0110
:100AB0008F5C9E4F0E94AC02CE018F5C9E4F0E94C5
:100AC000E916CE01895C9E4F0E94E916CE01835C37
:100AD0009E4F0E94E916CA5BDE4F0FB6F894DEBF48
:100AE0000FBECDBFDF91CF911F910F91FF90EF907F
:100AF000DF90CF90BF90AF909F908F900895DF923E
:100B0000EF92FF920F931F93CF93DF9300D000D00B
:100B100000D0CDB7DEB78C0160911A0170911B0136
:100B20000E941F12009729F004960E941B147C015A
:100B300002C0E12CF12CB701CE0101960E9457179B
:100B400060E371E0CE0101960E941818D82ECE0104
:100B500001960E94E916DD2021F0C8010E9476036B
:100B600015C0B701CE0101960E9457176CE371E0E2
:100B7000CE0101960E941818F82ECE0101960E940F
:100B8000E916FF2019F0C8010E94670426960FB6E7
:100B9000F894DEBF0FBECDBFDF91CF911F910F91B3
:100BA000FF90EF90DF9008958F929F92AF92BF9247
:100BB000CF92DF92EF92FF920F931F93CF93DF9329
:100BC000CDB7DEB7CC53D1400FB6F894DEBF0FBE21
:100BD000CDBF5C0167E172E0CE01895C9E4F0E944F
:100BE00057178DEC91E09A838983C15DDE4F19829E
:100BF0001882CF52D140CE0101960E947F118C0104
:100C0000CE0101960E947F116C018091100190919C
:100C10001101CF5CDE4F19830883C153D140CD5CF5
:100C2000DE4F99838883C353D140B601CE018F5CD8
:100C30009E4F0E94D201CE0101960E947F117C013D
:100C4000609108017091090180911A0190911B0136
:100C5000CF5CDE4FD982C882C153D140CD5CDE4F1C
:100C600099838883C353D140CE018F5C9E4F0E94ED
:100C700033024091A7025091A8026091A90270919D
:100C8000AA028091160190911701CF5CDE4FD982A4
:100C9000C882C153D140CD5CDE4F99838883C35352
:100CA000D140CE018F5C9E4F0E946002C09018011F
:100CB000D0901901F801808191810097C9F00E94BC
:100CC0006A114C01B601C8010E941F12FC01009775
:100CD00041F4C8010E94E010FC01009771F0D3823A
:100CE000C28226E030E0358324838682978205C065
:100CF00031E0C32E34E0D32E01C0640160910801BD
:100D0000709109018091140190911501CF5CDE4F23
:100D1000F982E882C153D140CD5CDE4F998388834C
:100D2000C353D140CE018F5C9E4F0E94330280910D
:100D30000C0190910D01CF5CDE4FF982E882C15326
:100D4000D140CD5CDE4F99838883C353D140B50138
:100D5000CE018F5C9E4F0E943603B701C6010E94F0
:100D6000D002BE01695C7E4FCE018F5C9E4F0E9417
:100D70008417B801CE018F5C9E4F0E94AC02CE0159
:100D80008F5C9E4F0E94E916CE01895C9E4F0E94A7
:100D9000E916C45CDE4F0FB6F894DEBF0FBECDBFC0
:100DA000DF91CF911F910F91FF90EF90DF90CF9047
:100DB000BF90AF909F908F9008954F925F926F92E7
:100DC0007F92AF92BF92CF92DF92EF92FF920F93FA
:100DD0001F93CF93DF93CDB7DEB7C45AD1400FB680
:100DE000F894DEBF0FBECDBF67E172E089E094E00A
:100DF0000E94D71667E172E0CE0185569E4F0E9491
:100E0000571783ED91E09A838983CD56DE4F19827F
:100E10001882C359D140CE0101960E947F117C01F6
:100E2000CE0101960E947F118C018091100190915A
:100E30001101CB56DE4FF982E882C559D140C9561F
:100E4000DE4F99838883C759D140B801CE018B56B4
:100E50009E4F0E94D20160910A0170910B01809116
:100E60001A0190911B01CB56DE4F19830883C55997
:100E7000D140C956DE4F99838883C759D140CE01EE
:100E80008B569E4F0E9433024091A7025091A802B8
:100E90006091A9027091AA028091160190911701A8
:100EA000CB56DE4F19830883C559D140C956DE4F52
:100EB00099838883C759D140CE018B569E4F0E949B
:100EC00060020091180110911901F7018081918150
:100ED0000097C9F00E946A116C01B801C7010E9415
:100EE0001F12FC01009741F4C7010E94E010FC01B1
:100EF000009761F01383028326E030E0358324837A
:100F0000C682D78203C001E014E001C0860186E8F2
:100F100092E00E94740E46E5C42E42E0D42EB60143
:100F200086E892E00E94050F2B013C01CE0101965C
:100F30000E947F115C01B601CE018B569E4F0E942C
:100F400098018091140190911501CF55DE4FB9821F
:100F5000A882C15AD140CD55DE4F99838883C35AA8
:100F6000D140BE016B567E4FCE018F559E4F0E94E1
:100F70003603CE018B569E4F0E94E91680911201D6
:100F800090911301CB56DE4FB982A882C559D1404A
:100F9000C956DE4F99838883C759D140B301A20156
:100FA000CE018B569E4F0E94FF01B501C8010E94E1
:100FB000D002F8E0CF0ED11C86E8C81682E0D80631
:100FC00009F0ADCFC956DE4F19821882C759D140FA
:100FD00085EC91E0CB56DE4F99838883C559D1408B
:100FE000BE016B567E4FC7010E94940269E074E017
:100FF000C7010E949402CE0185569E4F0E94E916B9
:10100000CC55DE4F0FB6F894DEBF0FBECDBFDF91DB
:10101000CF911F910F91FF90EF90DF90CF90BF90F5
:10102000AF907F906F905F904F90089562E089E954
:1010300092E00E94A60A69E972E086E892E00E94C6
:10104000120C60E371E08CE292E00E94571764E4B6
:1010500071E082E392E00E94571761E571E088E356
:1010600092E00E94571769E571E08EE392E00E94DA
:10107000571762E671E084E492E00E9457176DE62C
:1010800071E08AE492E00E9457176BE771E080E517
:1010900092E00E94571767E172E086E292E00C94BA
:1010A0005717CF93DF9386E292E00E94E916C6E5D8
:1010B000D2E02697CE010E94E91682E0CC32D80712
:1010C000C1F7DF91CF9108950F931F93CF93DF93D3
:1010D00000D000D000D0CDB7DEB70E94CA18609310
:1010E000AB027093AC028093AD029093AE0203EB1F
:1010F00012E089E094E00E94A914892B99F40E94DF
:1011000077018823B1F36EE871E0CE0101960E9469
:101110005717CE0101960E94D405CE0101960E9478
:10112000E91622C089E094E00E94C2148C37E1F0F5
:10113000D8018D938D01B3E003331B07D1F66CE921
:1011400071E0CE0101960E945717CE0101960E94D0
:10115000D405CE0101960E94E91680E8E3EBF2E0A7
:10116000DF011D928A95E9F726960FB6F894DEBF47
:101170000FBECDBFDF91CF911F910F910895CF93F7
:10118000DF93CDB7DEB7C254D1400FB6F894DEBFBF
:101190000FBECDBF68EC70E080E090E00E94F918CF
:1011A0008091A7029091A802A091A902B091AA02F1
:1011B0000196A11DB11D8093A7029093A802A09350
:1011C000A902B093AA020E94CA186093AF0270935A
:1011D000B0028093B1029093B20289E094E00E9441
:1011E000A914892B09F45BC00E9464088DEC91E07E
:1011F0009A838983C15DDE4F19821882CF52D14014
:101200004AE063EB72E0CE0101960E949411DC018A
:101210002D913C91232BD1F563EB72E0CE01835CE1
:101220009E4F0E9457176091060170910701CE01F1
:10123000895C9E4F0E945717BE01635C7E4FCE01B2
:10124000895C9E4F0E940518BC01CE018F5C9E4FA9
:101250000E948417CE018F5C9E4F0E94D405CE0160
:101260008F5C9E4F0E94E916CE01895C9E4F0E94C2
:10127000E916CE01835C9E4F0E94E91680E8E3EBFD
:10128000F2E0DF011D928A95E9F702C00E947F0516
:1012900080E8E3EBF2E0DF011D928A95E9F76091C7
:1012A000A7027091A8028091A9029091AA0224E657
:1012B00030E040E050E00E94481C672B682B692B0F
:1012C00011F40E94DD06CE5BDE4F0FB6F894DEBF50
:1012D0000FBECDBFDF91CF910895FF920F931F9363
:1012E000CF93DF93FC010081C181D281F894898181
:1012F000F02EF0948F21898378941DE7115029F105
:1013000082E090E00E94331988818023B9F3F89439
:101310008A818F218A838981802B8983789480EECA
:1013200091E00E943319F89489818F21898386E4A2
:1013300090E00E9433198881802311E009F010E0C9
:1013400078948AE991E00E943319812FDF91CF913F
:101350001F910F91FF9008951F93CF93DF93FC018E
:101360001081C181D281912F909560FF12C0F894B5
:101370008A8189238A838981812B89838AE090E00D
:101380000E9433198A81812B8A83789487E390E0C5
:1013900011C0F8948A8189238A838981812B89836A
:1013A00081E490E00E9433198A81812B8A837894AA
:1013B00085E090E0DF91CF911F910C9433190F934A
:1013C0001F93CF93DF93FC011081C181D281F894E8
:1013D0008981812B89838A81012F009580238A83CB
:1013E00083E090E00E9433198981802389838AE019
:1013F00090E00E943319C881789485E390E00E94C0
:1014000033191C2381E009F480E0DF91CF911F9113
:101410000F910895CF92DF92EF92FF920F931F9357
:10142000CF93DF931F92CDB7DEB76C01E62E08E0B5
:1014300010E0FF24F39461E09F2D9E2109F460E009
:10144000C60149830E94AC09FF0C01501109498172
:101450000115110581F7411115C0F894D6011196B7
:10146000ED91FC91129791818C91809589238183D4
:101470001196ED91FC91129792818C918095892320
:10148000828378940F90DF91CF911F910F91FF90FD
:10149000EF90DF90CF900895EF92FF920F931F93FC
:1014A000CF93DF938C01C8E0D0E0F12CEE24E394DD
:1014B000C8010E94DF098111FE28EE0C2197C1F7B7
:1014C0008F2DDF91CF911F910F91FF90EF90089595
:1014D000CF92DF92FF920F931F93CF93DF931F92D0
:1014E000CDB7DEB78C01F62E40E065E579830E942A
:1014F0000A0ACF2C7981D72E88E0F82EF601619167
:101500006F0140E0C8010E940A0AFA94B9F70F90EF
:10151000DF91CF911F910F91FF90DF90CF900895B1
:1015200040E06CEC0C940A0AFC01138615861486C4
:1015300027E030E0DF01A20FB31F13961C922115A4
:10154000310519F021503109F5CF08951F93CF933C
:10155000DF93EC01162F60E0812F0E94A219612F0A
:1015600070E0FB01E457FE4FE491E883FB01E05695
:10157000FE4FE491F0E0EE0FFF1FEC54FE4F85911B
:1015800094919A838983CE01DF91CF911F910C941E
:10159000940AAF92BF92CF92DF92EF92FF920F9395
:1015A0001F93CF93DF931F92CDB7DEB75C01D62E8A
:1015B000E72EFC018585811164C0C50149830E9425
:1015C0006D094981811105C0F501138615861486C0
:1015D00071C0442319F040E060EF02C040E06CEEBF
:1015E000C5010E940A0A01E0F12CC12C11E0C501DD
:1015F0000E94DF09682FC50169830E94DF096981A4
:10160000613019F48130B9F433C02F2D30E0681304
:101610001BC0F5018385181730F4E20FF31F838197
:10162000802349F402C0181731F060E0193058F4F3
:10163000F501148708C0F501EF0DF11D8381802BA2
:10164000838361E009C0C12EF501E20FF31F83819E
:10165000902F909589238383C5010E94AC091F5F59
:10166000000F11F4F39401E0F7E0FF1508F0BFCF8D
:10167000113438F0F501C386C11009C081E08587B7
:1016800006C0F50113861586148680E013C0F501A7
:1016900083818823B1F3ED2DFE2D80E090E0D5010C
:1016A000A80FB91F13962C912193019688309105AC
:1016B000B1F781E00F90DF91CF911F910F91FF90D3
:1016C000EF90DF90CF90BF90AF900895DC0180E065
:1016D000615038F0ED91E827F0E0E858FF4F849131
:1016E000F7CF08951F920F920FB60F9211242F93E8
:1016F0003F934F935F936F937F938F939F93AF939A
:10170000BF93EF93FF93809133030E94DB192091E5
:101710003603309137032F5F3F4F309337032093C9
:10172000360390910004943618F095E090933403BA
:10173000909134039330B9F018F4923039F057C0D7
:10174000943059F1953009F44CC051C081114FC00B
:1017500020913603309137032436310508F443C015
:10176000109200041CC0813009F041C0E0910004D7
:1017700091E09E0F90930004F0E0209136033091A9
:101780003703EE0FFF1FED5CFC4F3683258310926D
:1017900037031092360394E021C0811117C0E09105
:1017A000000491E09E0F90930004F0E02091360336
:1017B00030913703EE0FFF1FED5CFC4F368325831E
:1017C000109237031092360393E008C0209136033D
:1017D000309137032536310550F095E0909334036E
:1017E00006C0811104C01092370310923603909105
:1017F0003503992329F0811102C02D9A01C02D983B
:10180000FF91EF91BF91AF919F918F917F916F91D8
:101810005F914F913F912F910F900FBE0F901F90AE
:1018200018950895FC0181E19CE0928B818B768371
:1018300065831482108289E0818381E082838383BF
:101840000895CF93DF93EB0167E0CE010E94660B12
:1018500091E02F81821390E0892FDF91CF9108953D
:10186000CF92DF92EF92FF920F931F93CF93DF936C
:1018700000D0CDB7DEB76C01F42EE52EFC018581DA
:10188000968169837A830E946D0969817A818823B0
:1018900011F1F601858196810E94680A40E06EEBA5
:1018A000F601858196810E940A0A0F2D1E2D89E07E
:1018B000F82EF601858196810E944C0AF8018193E9
:1018C0008F01FA94B1F7F601858196810E946D0926
:1018D00091E0813009F090E0892F0F900F90DF9117
:1018E000CF911F910F91FF90EF90DF90CF900895CF
:1018F000CF93DF93EA010E94300C882351F068E017
:10190000CE010E94660B91E02885821390E0892F1A
:1019100001C080E0DF91CF910895EF92FF920F9385
:101920001F93CF93DF93EC018B017A018D819E8110
:101930000E946D09B8018D819E810E94680A40E075
:101940006EE48D819E810E940A0A40E0F701628167
:101950008D819E810E940A0A40E0F70163818D819A
:101960009E810E940A0AF8018081803139F040E0AE
:10197000F70164818D819E810E940A0A8D819E817A
:101980000E946D09B8018D819E810E94680A48817C
:1019900068E48D819E810E940A0A64E170E080E023
:1019A00090E00E94F9188881882331F06AE070E0A5
:1019B00080E090E00E94F9188D819E81DF91CF91A7
:1019C0001F910F91FF90EF900C946D09EF92FF9291
:1019D0001F93CF93DF9300D0CDB7DEB77C01FC011E
:1019E0008581968169837A830E946D0969817A81F4
:1019F000F701858196810E94680A40E064EBF70157
:101A0000858196810E940A0AF701858196810E944C
:101A1000DF09182FF701858196810E946D0981E009
:101A2000111180E00F900F90DF91CF911F91FF90E7
:101A3000EF900895EF92FF920F931F93CF93DF9350
:101A4000CDB7DEB72A970FB6F894DEBF0FBECDBF75
:101A50007C018B01242FAE014F5F5F4F2A870E94CC
:101A6000780C2A858823D1F0F80180818031C1F07B
:101A70002B3041F02C3021F02A3031F48FE305C0B7
:101A80008FE703C08FE501C08FE18D83AE014F5F0B
:101A90005F4FB801C7010E948D0C02C080E001C0F9
:101AA00081E02A960FB6F894DEBF0FBECDBFDF915E
:101AB000CF911F910F91FF90EF900895CF93DF93F7
:101AC000CDB7DEB729970FB6F894DEBF0FBECDBFF6
:101AD000FB0120812031D1F0AE014F5F5F4F0E94AA
:101AE000780C882379F08D818F3351F020F48F3179
:101AF00049F489E00CC08F3539F08F3739F002C0D6
:101B00008AE005C080E003C08BE001C08CE029962C
:101B10000FB6F894DEBF0FBECDBFDF91CF91089511
:101B2000FF920F931F93CF93DF93CDB7DEB76197EB
:101B30000FB6F894DEBF0FBECDBF8C01FC018581CE
:101B400096810E94940AF801148241E0BE01665F0A
:101B50007F4FF801858196810E94C90A8823D1F1BF
:101B6000BE01665F7F4FC8010E94210C882369F384
:101B7000F8018081811108C0BE01665F7F4FC801F6
:101B80000E94E60C811122C0AE014F5F5F4FBE0183
:101B9000665F7F4FC8010E94300CF801F180BE01E2
:101BA000665F7F4FC8010E945E0D8F1518F4F80123
:101BB000818106C0BE01665F7F4FC8010E945E0D35
:101BC000F801818384818F5F8483BFCF81E0F80136
:101BD0008083DACF61960FB6F894DEBF0FBECDBF1B
:101BE000DF91CF911F910F91FF900895CF93DF93D5
:101BF000CDB7DEB729970FB6F894DEBF0FBECDBFC5
:101C0000AE014F5F5F4F0E94300C81E099819111CE
:101C100001C080E029960FB6F894DEBF0FBECDBF9D
:101C2000DF91CF9108958F929F92AF92BF92CF9202
:101C3000DF92EF92FF920F931F93CF93DF93EC010C
:101C40008A016950633048F4E62FF0E0EE0FFF1F81
:101C5000EB52FE4F8080918004C09EEE892E92E070
:101C6000992E0115110501F18B818823E9F08881F6
:101C700081111AC00E94CA186B017C01AA2497FC2A
:101C8000A094BA2CB801CE010E94F60D81111FC09C
:101C90000E94CA18681979098A099B096C157D0583
:101CA0008E059F05A0F4EECFB401882777FD8095BF
:101CB000982FDF91CF911F910F91FF90EF90DF90C0
:101CC000CF90BF90AF909F908F900C94F918DF91B8
:101CD000CF911F910F91FF90EF90DF90CF90BF9029
:101CE000AF909F908F900895CF93DF93EC018D81FB
:101CF0009E810E946D098D819E810E94900A48817B
:101D000064E48D819E810E940A0A8A81882341F0C1
:101D100040E050E06981CE01DF91CF910C94130E29
:101D2000DF91CF910895FA01208148E0249F90012E
:101D30001124818190E0982F8827990F990F990F8E
:101D4000282B392BDB018C918031C1F4678170E045
:101D50008681AB01481B5109CA019695982F8827A7
:101D6000979587950E94341C60517109207F53E03C
:101D7000220F331F5A95E1F7260F371FC901089527
:101D8000EF92FF920F931F93CF93DF93CDB7DEB700
:101D900029970FB6F894DEBF0FBECDBF8C017B0133
:101DA000AE014F5F5F4F0E94780C882341F0AE0177
:101DB0004F5F5F4FB701C8010E94930E02C080E8D9
:101DC00094EE29960FB6F894DEBF0FBECDBFDF911B
:101DD000CF911F910F91FF90EF900895813824EEDD
:101DE000920774F0BC01882777FD8095982F0E9498
:101DF000091B20E030E040E05CE30E94BD1B089539
:101E000060E070E08EEF92EC08950E94C00E0C949A
:101E1000EE0EFC0120812D3051F024F429502230A7
:101E200030F505C0203219F02F3219F008950196CF
:101E3000F0CFFC0121812A3219F02F3279F0089578
:101E40000296FC012081222321F32A3229F42181E8
:101E50002F3211F40296DDCF0196F3CFFC013296BA
:101E6000CF0121912223A9F22A30D1F7D2CF0895B0
:101E70000F931F93CF93DF931F92CDB7DEB78C01E3
:101E8000FC018281938169830E94090FFC012081FA
:101E90006981261308C001960E94090FF8019383F7
:101EA000828381E001C080E00F90DF91CF911F918C
:101EB0000F910895CF93DF93EC01AA81BB814C81F0
:101EC0003D812C91273219F4C42FD32F15C0223213
:101ED000D9F3C42FD32FFD012AC03C3559F4FD019D
:101EE000329612963C91AFEDB1E06C91611110C049
:101EF000332339F13993DF01AE01FD01319611969B
:101F00003C9111973323E9F03213E7CF319619C092
:101F1000631303C011963C91EBCF1296E6CF322F9C
:101F20003F7D31543A3148F4299331962081AE01F6
:101F300030ED320F3A30C0F3F2CF33ED320F3230A2
:101F400098F3DA011D92EC012C813D81FB83EA8339
:101F5000BD83AC83C901DF91CF910895BF92CF9229
:101F6000DF92EF92FF920F931F93CF93DF9300D0F6
:101F700000D000D0CDB7DEB78C01FC01808191810B
:101F80000E947F116C016BE7C8010E94380F882303
:101F900009F444C06DE7C8010E94380F81113CC0AC
:101FA00086E0B82EC8010E945A0F7C010097B1F15B
:101FB0006AE3C8010E94380F882381F11A821982CE
:101FC000BE016F5F7F4FC8010E942010882331F14E
:101FD000B701C6010E941F12009741F4C6010E947A
:101FE000E0100097D9F0FC01F382E282FE01319605
:101FF000DC0114968B2D01900D928A95E1F76DE727
:10200000C8010E94380F811107C06CE2C8010E940C
:10201000380F8111C7CF02C0C60102C085E094E02D
:1020200026960FB6F894DEBF0FBECDBFDF91CF91DD
:102030001F910F91FF90EF90DF90CF90BF90089588
:10204000FF920F931F93CF93DF93EC018B018E814F
:10205000882309F447C081508E838A819B810E9426
:10206000090F9B838A83FC0180818B3519F08B37A4
:1020700061F01CC0CE010E947910FC0120813181E9
:10208000232B59F126E030E00AC0CE010E94AE0FAA
:10209000FC0120813181232B01F127E030E0F801A0
:1020A000318320839383828381E018C0873231F0AB
:1020B00091E0823209F090E0F92E02C0FF24F394FF
:1020C000CE010E945A0F009741F0FF2019F022E044
:1020D00030E0E5CF21E030E0E2CF80E09E819F5FFD
:1020E0009E8301C080E0DF91CF911F910F91FF90FF
:1020F0000895DF92EF92FF920F931F93CF93DF9398
:1021000000D000D000D0CDB7DEB78C01FC018081BB
:1021100091810E946A117C016BE5C8010E94380F11
:10212000882379F16DE5C8010E94380F811127C01D
:1021300096E0D92E1A821982BE016F5F7F4FC801C7
:102140000E9420108823E9F0C7010E940311009724
:10215000C1F0FE013196DC0112968D2D01900D9299
:102160008A95E1F76DE5C8010E94380F811107C01B
:102170006CE2C8010E94380F8111DCCF02C0C70198
:1021800002C081E094E026960FB6F894DEBF0FBE41
:10219000CDBFDF91CF911F910F91FF90EF90DF9016
:1021A0000895DB01109749F0ED91FC911197019092
:1021B000F081E02DBC01CD01099480E090E008950C
:1021C000CF93DF93EC01688179818AE090E00E94EF
:1021D000D110009729F0FC0111821082158214821F
:1021E000EA81FB81309751F0208131812115310541
:1021F00011F0F901F9CF9183808302C09B838A8318
:10220000DF91CF910895CF93DF93EC0168817981BD
:1022100088E090E00E94D110009729F0FC01118223
:10222000108213821282EA81FB81309751F0208163
:1022300031812115310511F0F901F9CF91838083A6
:1022400002C09B838A83DF91CF910895CF93DF9360
:10225000EC0188819981DC01ED91FC910190F08184
:10226000E02D09952A813B81280F391F3B832A8362
:10227000DF91CF9108950F931F93CF93DF93EC01DC
:102280008B016BE5C8010E9426110A80DB81C02DFD
:10229000209779F0B801CE0102960E943F14099070
:1022A000D881C02D209729F06CE2C8010E94261128
:1022B000F1CF6DE5C801DF91CF911F910F910C9483
:1022C000261110920204109201041092040410923C
:1022D00003040895CF93DF93EC01BC0184E090E008
:1022E0000E94D110FC01009729F0D183C083138292
:1022F000128202C081E094E0DF91CF910895CF93E4
:10230000DF93EC01BC0184E090E00E94D110FC015D
:10231000009729F0D183C0831382128202C085E026
:1023200094E0DF91CF910895CF93DF93CDB7DEB7DF
:1023300027970FB6F894DEBF0FBECDBF9A8389836F
:102340006115710519F487E192E001C0CB019C830E
:102350008B837E836D834F83CE0101960E94AE0FE7
:1023600027960FB6F894DEBF0FBECDBFDF91CF9199
:102370000895EF92FF920F931F93CF93DF9300D0B6
:10238000CDB7DEB78B014F5F5F4FDC01ED91FC9164
:102390000190F081E02DBA0149835A8309957C01AF
:1023A00049815A81009719F0B8010E94D31FC701D3
:1023B0000F900F90DF91CF911F910F91FF90EF90B1
:1023C0000895FF920F931F93CF93DF93EC018B013E
:1023D0006115710591F46AEE71E0888199810E941E
:1023E000D1162A813B81280F391F3B832A83DF9135
:1023F000CF911F910F91FF90089562E2CE010E944C
:102400002611F80161918F01662351F0EBEDF1E0A7
:10241000F080FF2099F39181961759F03296F8CF0A
:1024200062E2CE01DF91CF911F910F91FF900C944A
:1024300026116CE5CE010E9426116F2DDFCF0F9380
:102440001F93CF93DF938B01FC01C281D38120972F
:1024500059F0B8018A819B810E94DC1F892B39F0D9
:102460000990D881C02DF3CF80E090E001C0CE016B
:10247000DF91CF911F910F9108950F931F93CF93E9
:10248000DF938C01EB016BE7CE010E942611F8016E
:102490000281138101151105D1F0F8016281738168
:1024A000CE010E94E1116AE3CE010E942611BE0115
:1024B000C80104960E943F14F801008111810115A2
:1024C000110529F06CE2CE010E942611E6CF6DE7DE
:1024D000CE01DF91CF911F910F910C942611109294
:1024E000060410920504109208041092070408953F
:1024F000CF93DF93EC01888199810E94D1162A81C4
:102500003B81280F391F3B832A83DF91CF910895A8
:102510008F929F92AF92BF92DF92EF92FF920F93B2
:102520001F93CF93DF93CDB7DEB766970FB6F894BE
:10253000DEBF0FBECDBF8C0180E02AE0822E912C41
:10254000A12CB12CDD24D394D80EEE24E394F12CED
:10255000EC0EFD1EE80EF11CCB01BA01A5019401A1
:102560000E94481CCA01605DF7016083A901BC019B
:10257000411551056105710511F08D2DE3CFDD2069
:1025800061F0DA94E1E0F0E0EC0FFD1FED0DF11DDC
:102590006081C8010E942611F2CF66960FB6F894AA
:1025A000DEBF0FBECDBFDF91CF911F910F91FF9086
:1025B000EF90DF90BF90AF909F908F9008954F92D3
:1025C0005F926F927F92AF92BF92CF92DF92EF9223
:1025D000FF920F931F93CF93DF93EC016A017B016E
:1025E00059019A01AB01C701B6010E94201C882342
:1025F00019F06FEE71E02BC020E030E0A901C701B7
:10260000B6010E946A1A87FF08C06DE2CE010E94DF
:102610002611F7FAF094F7F8F09426013701E894C0
:1026200077F82FEF3FEF4FE75FE7C301B2010E945A
:10263000201C81111DC02FEF3FEF4FE75FE7C30163
:10264000B2010E946A1A18169CF463EF71E0CE0181
:10265000DF91CF911F910F91FF90EF90DF90CF907E
:10266000BF90AF907F906F905F904F900C947812D6
:1026700020E030E04AE754E4C701B6010E94B91BEC
:1026800000E010E018160CF12FE632E143E85AE3BF
:10269000C701B6010E946A1A87FF37C016C020E042
:1026A00030E040E85FE3C701B6010E946A1A87FF85
:1026B00015C00150110920E030E040E251E4C701AB
:1026C000B6010E94BD1B6B017C0120E030E0A90136
:1026D000C701B6010E946A1A8111E1CF20E030E003
:1026E00040E251E4C701B6010E94B91B18166CF410
:1026F0000F5F1F4F20E030E040E251E4C701B60118
:102700000E946E1A6B017C01E9CF712C60E070E0D1
:1027100080E09FE3272D30E02A153B0544F420E0BC
:1027200030E040E251E40E946E1A7394F3CF9B01B3
:10273000AC01C701B6010E94061A6B017C010E9420
:10274000DB1A2B013C010E94071B9B01AC01C70156
:10275000B6010E94051A6B017C01B301A201CE01F2
:102760000E9488121A141B0424F46EE2CE010E9407
:1027700026111A141B041CF520E030E040E251E45D
:10278000C701B6010E94BD1B6B017C010E94DB1AD0
:102790002B013C01AB01BC01CE010E948812C30198
:1027A000B2010E94071B9B01AC01C701B6010E9448
:1027B000051A6B017C0181E0A81AB108DACF17FF76
:1027C0000EC06CEF71E0CE010E94781244275527AD
:1027D000401B510B662757FD6095762F0CC00115E5
:1027E0001105D1F065E6CE010E942611A8016627E9
:1027F00057FD6095762FCE01DF91CF911F910F91FC
:10280000FF90EF90DF90CF90BF90AF907F906F9050
:102810005F904F900C948812DF91CF911F910F9190
:10282000FF90EF90DF90CF90BF90AF907F906F9030
:102830005F904F9008950F931F93CF93DF93EC0118
:10284000088119810130110559F46A817B81611574
:10285000710531F08AEE91E00E94DC1F892B41F076
:10286000015011090230110518F48A819B8102C0C0
:1028700080E090E0DF91CF911F910F9108950F9329
:102880001F93CF93DF938C01EB01FC0120813181F9
:102890002830310508F04AC0F901EC5CFF4F0C9478
:1028A0006A1CFC0182819381DF91CF911F910F916E
:1028B0000C943B11FC0182819381DF91CF911F9198
:1028C0000F910C943D12FC0162817381CE01DF9166
:1028D000CF911F910F910C94E111FC0162817381E2
:1028E0001EC06DE2CE010E942611F8014281538183
:1028F00064817581CE01DF91CF911F910F910C946E
:102900008812FC014281538164817581452B462BDD
:10291000472B19F06BE271E002C06FEF71E0CE015E
:10292000DF91CF911F910F910C947812285030E0D5
:10293000FC014281538164817581CE01DF91CF9189
:102940001F910F910C94DF12DF91CF911F910F9186
:102950000895FC01818D228D90E0805C9F4F821B49
:1029600091098F7399270895FC01918D828D981795
:1029700031F0828DE80FF11D858D90E008958FEF85
:102980009FEF0895FC01918D828D981761F0828DE3
:10299000DF01A80FB11D5D968C91928D9F5F9F7393
:1029A000928F90E008958FEF9FEF089586E496E16F
:1029B000892B49F080E090E0892B29F00E9446168F
:1029C00081110C9400000895FC01848DDF01A80F93
:1029D000B11DA35ABF4F2C91848D90E001968F7347
:1029E0009927848FA689B7892C93A089B1898C9166
:1029F00080648C93938D848D981306C00288F3892C
:102A0000E02D80818F7D80830895CF93DF93EC014B
:102A1000888D8823C9F0EA89FB89808185FD05C0FE
:102A2000A889B9898C9186FD0FC00FB607FCF5CF38
:102A3000808185FFF2CFA889B9898C9185FFEDCF80
:102A4000CE010E94E414E7CFDF91CF910895CF9299
:102A5000DF92FF920F931F93CF93DF931F92CDB717
:102A6000DEB76C0181E0D60158968C9358975B963F
:102A70009C915B975C968C915C97981307C05096DD
:102A8000ED91FC915197808185FD2EC0F601038D5B
:102A900010E00F5F1F4F0F731127F02EF601848D8A
:102AA000F81211C00FB607FCF9CFD6015096ED9180
:102AB000FC915197808185FFF1CFC60169830E9407
:102AC000E4146981EBCF838DE80FF11DE35AFF4FCA
:102AD0006083D6015B960C935B975296ED91FC91C7
:102AE0005397808180620CC0D6015696ED91FC917F
:102AF000579760835096ED91FC9151978081806447
:102B0000808381E090E00F90DF91CF911F910F9132
:102B1000FF90DF90CF900895BF92CF92DF92EF9217
:102B2000FF92CF93DF93EC016A017B01B22EE8891B
:102B3000F98982E08083411581EE580761057105AE
:102B4000A1F060E079E08DE390E0A70196010E949A
:102B5000481C21503109410951095695479537952F
:102B60002795211580E1380798F0E889F9891082C6
:102B700060E874E88EE190E0A70196010E94481C8D
:102B800021503109410951095695479537952795A7
:102B9000EC85FD853083EE85FF852083188EEC89DA
:102BA000FD89B082EA89FB89808180618083EA891E
:102BB000FB89808188608083EA89FB8980818068C5
:102BC0008083EA89FB8980818F7D8083DF91CF912B
:102BD000FF90EF90DF90CF90BF9008951F920F92DB
:102BE0000FB60F9211242F938F939F93EF93FF9320
:102BF000E0911904F0911A048081E0911F04F09192
:102C0000200482FD12C09081809122048F5F8F7317
:102C100020912304821751F0E0912204F0E0E75F55
:102C2000FB4F958F8093220401C08081FF91EF912B
:102C30009F918F912F910F900FBE0F901F9018951D
:102C40001F920F920FB60F9211242F933F934F9321
:102C50005F936F937F938F939F93AF93BF93EF9304
:102C6000FF9389E094E00E94E414FF91EF91BF91FB
:102C7000AF919F918F917F916F915F914F913F9114
:102C80002F910F900FBE0F901F90189589E094E040
:102C90000E94A91421E0892B09F420E0822F0895D5
:102CA00010920C0410920B0488EE93E0A0E0B0E0C8
:102CB00080930D0490930E04A0930F04B09310041E
:102CC00089E092E090930A048093090485EC90E0F7
:102CD000909316048093150484EC90E0909318046C
:102CE0008093170480EC90E090931A048093190469
:102CF00081EC90E090931C0480931B0482EC90E0A4
:102D000090931E0480931D0486EC90E09093200421
:102D100080931F0410922204109223041092240422
:102D2000109225040895CF92DF92EF92FF920F93B5
:102D30001F93CF93DF937C016A01EB0100E010E069
:102D40000C151D0571F06991D701ED91FC91019071
:102D5000F081E02DC7010995892B19F00F5F1F4FF6
:102D6000EFCFC801DF91CF911F910F91FF90EF90AE
:102D7000DF90CF9008956115710581F0DB010D9012
:102D80000020E9F7AD0141505109461B570BDC010A
:102D9000ED91FC910280F381E02D099480E090E0B8
:102DA00008950C94BB1665E172E00C94BB160F936A
:102DB0001F93CF93DF93EC010E94BB168C01CE01D1
:102DC0000E94D316800F911FDF91CF911F910F9119
:102DD0000895FC01808191810C94361DCF93DF937F
:102DE000EC0188819981009711F00E94361D1982AB
:102DF00018821D821C821B821A82DF91CF91089556
:102E00000F931F93CF93DF93EC018B016F5F7F4F85
:102E1000888199810E94C51D009731F0998388832C
:102E20001B830A8381E001C080E0DF91CF911F9175
:102E30000F910895CF93DF93EC0188819981892BBD
:102E400029F08A819B818617970760F4CE010E9442
:102E50000017882341F08C819D81892B19F4E8812A
:102E6000F981108281E0DF91CF910895EF92FF9276
:102E70000F931F93CF93DF93EC017B018A01BA017B
:102E80000E941A17811104C0CE010E94EE1607C0DD
:102E90001D830C83B701888199810E94E51FCE01B3
:102EA000DF91CF911F910F91FF90EF900895FC015A
:102EB00011821082138212821582148261157105AB
:102EC00059F0FB0101900020E9F7AF014150510991
:102ED000461B570B0C9436170895CF93DF93EC01E4
:102EE000FB018617970761F060817181611571059B
:102EF00029F0448155810E94361702C00E94EE16C7
:102F0000CE01DF91CF910895FC01118210821382CE
:102F10001282158214820C946D17CF93DF93EC010B
:102F20006115710561F0FB0101900020E9F7AF0127
:102F300041505109461B570B0E94361702C00E9490
:102F4000EE16CE01DF91CF9108950F931F93CF938B
:102F5000DF93CDB7DEB729970FB6F894DEBF0FBE6B
:102F6000CDBF8C01862FF80111821082138212824C
:102F70001582148250E0BE016F5F7F4F90E00E9487
:102F8000EC1FBE016F5F7F4FC8010E948D1729960D
:102F90000FB6F894DEBF0FBECDBFDF91CF911F916A
:102FA0000F910895EF92FF920F931F93CF93DF93AA
:102FB000EC017B010C811D816115710511F480E02C
:102FC00016C04115510591F0040F151FB8010E945C
:102FD0001A178823A1F3288139818C819D81B7013B
:102FE000820F931F0E94E51F1D830C8381E0DF91F8
:102FF000CF911F910F91FF90EF900895FB014481B5
:103000005581608171810C94D217CF93DF93EC01CD
:10301000FB0144815581608171810E94D217811129
:1030200003C0CE010E94EE16CE01DF91CF9108952C
:10303000FC0124813581232B31F421E061157105D8
:10304000A1F0FB0108C0FC0180819181611571052F
:1030500031F421E0FC018081882339F005C00E9411
:10306000DC1F21E0892B09F020E0822F0895EF92E8
:10307000FF920F931F93CF93DF938617970731F13A
:10308000FC0124813581FB014481558124173507DA
:10309000F9F4232BD9F0FC0100811181FB01C081DF
:1030A000D181F80181918F01882381F0992787FDD3
:1030B00090950E94CB1F7C018991992787FD90955F
:1030C0000E94CB1FE816F90661F302C081E001C03F
:1030D00080E0DF91CF911F910F91FF90EF900895C5
:1030E00008950E943E190E9470180E946401C6ED66
:1030F000D4E10E94BF082097E1F30E94D614F9CFD3
:103100001F920F920FB60F9211242F933F938F931C
:103110009F93AF93BF938091A7049091A804A0912F
:10312000A904B091AA043091A60423E0230F2D37FF
:1031300020F40196A11DB11D05C026E8230F0296BB
:10314000A11DB11D2093A6048093A7049093A80409
:10315000A093A904B093AA048091AB049091AC040D
:10316000A091AD04B091AE040196A11DB11D809354
:10317000AB049093AC04A093AD04B093AE04BF91A4
:10318000AF919F918F913F912F910F900FBE0F9014
:103190001F9018952FB7F8946091A7047091A80418
:1031A0008091A9049091AA042FBF08953FB7F89485
:1031B0008091AB049091AC04A091AD04B091AE04A9
:1031C00026B5A89B05C02F3F19F00196A11DB11D82
:1031D0003FBF6627782F892F9A2F620F711D811D9F
:1031E000911D42E0660F771F881F991F4A95D1F7FE
:1031F00008958F929F92AF92BF92CF92DF92EF92FB
:10320000FF926B017C010E94D6184B015C01C11436
:10321000D104E104F104F1F00E94041A0E94D618CE
:10322000681979098A099B09683E734081059105EF
:1032300070F321E0C21AD108E108F10888EE880E87
:1032400083E0981EA11CB11CC114D104E104F10457
:1032500029F7DDCFFF90EF90DF90CF90BF90AF9038
:103260009F908F9008958230910538F0880F991FB4
:10327000880F991F05970197F1F70895789484B501
:10328000826084BD84B5816084BD85B5826085BD62
:1032900085B5816085BDEEE6F0E080818160808348
:1032A000E1E8F0E01082808182608083808181602B
:1032B0008083E0E8F0E0808181608083E1EBF0E0F2
:1032C000808184608083E0EBF0E080818160808396
:1032D000EAE7F0E08081846080838081826080837F
:1032E0008081816080838081806880831092C100AA
:1032F0000895833081F028F4813099F08230A1F074
:1033000008958730A9F08830B9F08430D1F48091E5
:1033100080008F7D03C0809180008F778093800034
:10332000089584B58F7702C084B58F7D84BD0895DC
:103330008091B0008F7703C08091B0008F7D809323
:10334000B0000895CF93DF9390E0FC01E457FE4F67
:103350002491FC01E056FE4F8491882349F190E0CE
:10336000880F991FFC01E853FE4FA591B491825438
:103370009E4FFC01C591D4919FB7611108C0F8948C
:103380008C91209582238C93888182230AC062309D
:1033900051F4F8948C91322F309583238C9388814B
:1033A000822B888304C0F8948C91822B8C939FBFCE
:1033B000DF91CF910895CF93DF93282F30E0F9016B
:1033C000E858FE4F8491F901E457FE4FD491F9017A
:1033D000E056FE4FC491CC2391F081110E947919DF
:1033E000EC2FF0E0EE0FFF1FEC54FE4FA591B491CF
:1033F0002C912D2381E090E021F480E002C080E058
:1034000090E0DF91CF91089508955058BB27AA27E7
:103410000ED075C166D130F06BD120F031F49F3FF2
:1034200011F41EF45BC10EF4E095E7FB51C1E92FE6
:1034300077D180F3BA17620773078407950718F0EE
:1034400071F49EF58FC10EF4E0950B2EBA2FA02DCE
:103450000B01B90190010C01CA01A0011124FF2741
:10346000591B99F0593F50F4503E68F11A16F0403C
:10347000A22F232F342F4427585FF3CF469537953B
:103480002795A795F0405395C9F77EF41F16BA0B00
:10349000620B730B840BBAF09150A1F0FF0FBB1FAE
:1034A000661F771F881FC2F70EC0BA0F621F731FF7
:1034B000841F48F4879577956795B795F7959E3F54
:1034C00008F0B3CF9395880F08F09927EE0F9795E2
:1034D00087950895D9D008F481E008950CD00FC1E4
:1034E00007D140F0FED030F021F45F3F19F0F0C07A
:1034F000511139C1F3C014D198F39923C9F355235D
:10350000B1F3951B550BBB27AA27621773078407D6
:1035100038F09F5F5F4F220F331F441FAA1FA9F38C
:1035200033D00E2E3AF0E0E830D091505040E6957E
:10353000001CCAF729D0FE2F27D0660F771F881FDF
:10354000BB1F261737074807AB07B0E809F0BB0BCE
:10355000802DBF01FF2793585F4F2AF09E3F5105F2
:1035600068F0B6C000C15F3FECF3983EDCF386958F
:1035700077956795B795F7959F5FC9F7880F911D68
:103580009695879597F90895E1E0660F771F881F54
:10359000BB1F621773078407BA0720F0621B730B07
:1035A000840BBA0BEE1F88F7E095089504D0689459
:1035B000B111D9C00895BCD088F09F5790F0B92FB1
:1035C0009927B751A0F0D1F0660F771F881F991F78
:1035D0001AF0BA95C9F712C0B13081F0C3D0B1E08A
:1035E0000895C0C0672F782F8827B85F39F0B93F9A
:1035F000CCF3869577956795B395D9F73EF490957A
:103600008095709561957F4F8F4F9F4F0895E894F7
:1036100009C097FB3EF490958095709561957F4F1A
:103620008F4F9F4F9923A9F0F92F96E9BB279395C8
:10363000F695879577956795B795F111F8CFFAF4D8
:10364000BB0F11F460FF1BC06F5F7F4F8F4F9F4F09
:1036500016C0882311F096E911C0772321F09EE867
:10366000872F762F05C0662371F096E8862F70E0CD
:1036700060E02AF09A95660F771F881FDAF7880FA7
:103680009695879597F90895990F0008550FAA0BFD
:10369000E0E8FEEF16161706E807F907C0F0121665
:1036A0001306E407F50798F0621B730B840B950B68
:1036B00039F40A2661F0232B242B252B21F40895BD
:1036C0000A2609F4A140A6958FEF811D811D08955A
:1036D00097F99F6780E870E060E008959FEF80ECC5
:1036E000089500240A941616170618060906089568
:1036F00000240A9412161306140605060895092ECE
:103700000394000C11F4882352F0BB0F40F4BF2B3C
:1037100011F460FF04C06F5F7F4F8F4F9F4F08957C
:1037200057FD9058440F551F59F05F3F71F0479572
:10373000880F97FB991F61F09F3F79F08795089557
:10374000121613061406551FF2CF4695F1DF08C076
:10375000161617061806991FF1CF86957105610593
:1037600008940895E894BB2766277727CB0197F93B
:1037700008958ADF08F48FEF08950BD0C0CFB1DF32
:1037800028F0B6DF18F0952309F0A2CFA7CF1124B7
:10379000EACFC6DFA0F3959FD1F3950F50E0551FF8
:1037A000629FF001729FBB27F00DB11D639FAA2796
:1037B000F00DB11DAA1F649F6627B00DA11D661FE5
:1037C000829F2227B00DA11D621F739FB00DA11D06
:1037D000621F839FA00D611D221F749F3327A00DC0
:1037E000611D231F849F600D211D822F762F6A2F5C
:1037F00011249F5750408AF0E1F088234AF0EE0FE1
:10380000FF1FBB1F661F771F881F91505040A9F7ED
:103810009E3F510570F05CCFA6CF5F3FECF3983E22
:10382000DCF3869577956795B795F795E7959F5F54
:10383000C1F7FE2B880F911D9695879597F90895EE
:1038400023DF880B990B0895DB018F939F930E94D0
:10385000701CBF91AF91A29F800D911DA39F900DF1
:10386000B29F900D1124089597FB072E16F4009433
:1038700007D077FD09D00E947B1C07FC05D03EF4E1
:10388000909581959F4F0895709561957F4F08950C
:10389000A1E21A2EAA1BBB1BFD010DC0AA1FBB1F54
:1038A000EE1FFF1FA217B307E407F50720F0A21BC6
:1038B000B30BE40BF50B661F771F881F991F1A9433
:1038C00069F760957095809590959B01AC01BD015D
:1038D000CF010895EE0FFF1F0590F491E02D09949C
:1038E0000E948F1CA59F900DB49F900DA49F800DEA
:1038F000911D11240895AA1BBB1B51E107C0AA1FEB
:10390000BB1FA617B70710F0A61BB70B881F991F80
:103910005A95A9F780959095BC01CD010895A29F75
:10392000B001B39FC001A39F700D811D1124911D93
:10393000B29F700D811D1124911D0895CF93DF93C7
:103940008230910510F482E090E0E091B304F091B0
:10395000B40420E030E0A0E0B0E0309739F14081DD
:10396000518148175907B8F04817590771F48281F7
:103970009381109729F013969C938E9312972CC0E5
:103980009093B4048093B30427C02115310531F01E
:103990004217530718F0A901DB0101C0EF019A019A
:1039A000BD01DF010280F381E02DD7CF2115310564
:1039B000F9F0281B390B2430310580F48A819B8172
:1039C0006115710521F0FB019383828304C09093FC
:1039D000B4048093B304FE01329644C0FE01E20FAA
:1039E000F31F8193919322503109398328833AC080
:1039F0002091B1043091B204232B41F420910201B3
:103A0000309103013093B2042093B104209100015E
:103A1000309101012115310541F42DB73EB7409198
:103A2000040150910501241B350BE091B104F09184
:103A3000B204E217F307A0F42E1B3F0B2817390737
:103A400078F0AC014E5F5F4F2417350748F04E0FFA
:103A50005F1F5093B2044093B1048193919302C0CD
:103A6000E0E0F0E0CF01DF91CF910895CF93DF93B5
:103A7000009709F487C0FC01329713821282C0912B
:103A8000B304D091B404209781F420813181280FB0
:103A9000391F8091B1049091B2048217930779F590
:103AA000F093B204E093B1046DC0DE0120E030E099
:103AB000AE17BF0750F412964D915C9113979D017C
:103AC0004115510509F1DA01F3CFB383A283408197
:103AD0005181840F951F8A179B0771F48D919C91DA
:103AE0001197840F951F02969183808312968D9172
:103AF0009C911397938382832115310529F4F093C8
:103B0000B404E093B3043EC0D9011396FC93EE9342
:103B100012974D915D91A40FB51FEA17FB0779F439
:103B200080819181840F951F0296D90111969C93F3
:103B30008E938281938113969C938E931297E0E0EB
:103B4000F0E08A819B81009719F0FE01EC01F9CF2A
:103B5000CE01029628813981820F931F2091B104F2
:103B60003091B2042817390769F4309729F410927C
:103B7000B4041092B30402C013821282D093B20430
:103B8000C093B104DF91CF910895A0E0B0E0EBECD9
:103B9000FDE10C942820EC01CB01209719F40E9440
:103BA0009E1CB8C0FE01E60FF71F9E01225031098E
:103BB000E217F30708F4ACC0D9010D911C911197DD
:103BC00006171707B8F00530110508F49FC0A801C3
:103BD000445051094617570708F498C0025011097C
:103BE000061B170B019311936D937C93CF010E94D9
:103BF000361D8CC05B01A01AB10A4E01800E911EC9
:103C0000A091B304B091B404612C712C60E070E019
:103C1000109709F449C0A815B905C9F5ED90FC90B5
:103C20001197670142E0C40ED11CCA14DB0478F17D
:103C300047018A189B08640142E0C40ED11C129609
:103C4000BC9012971396AC91B5E0CB16D10440F01E
:103C5000B282A38391828082D9018D939C9309C003
:103C60000E5F1F4F0E0D1F1DF90111830083EB2DF9
:103C7000FA2F6115710531F0DB011396FC93EE9379
:103C8000129744C0F093B404E093B3043FC06D9125
:103C90007C9111976616770608F43B01BD011296D8
:103CA0000D90BC91A02DB4CF6091B1047091B2047D
:103CB00068157905E9F468167906D0F44091000199
:103CC000509101014115510541F44DB75EB7609126
:103CD000040170910501461B570BE417F507C0F46A
:103CE000F093B204E093B104F901918380830EC094
:103CF0000E949E1C7C01009759F0A801BE010E9401
:103D0000D31FCE010E94361DC70104C0CE0102C0E0
:103D100080E090E0CDB7DEB7EEE00C9444202F9227
:103D20003F925F926F927F928F929F92AF92BF92DB
:103D3000CF92DF92EF92FF920F931F93CF93DF9377
:103D40008B01EA016115710521F0DB018C9311965D
:103D50009C93209739F09E0122503109233231057E
:103D600008F0FBC07C016701BFEFCB1ADB0A5601EC
:103D7000F7016080862D90E00E94C31F892B11F00F
:103D80007601F1CFFDE26F120AC0570182E0A80E62
:103D9000B11CD70111966C90772473940BC0BBE2D1
:103DA0006B1207C05701E2E0AE0EB11CD7011196AD
:103DB0006C90712CCE018F7E892B89F4B0E36B124D
:103DC00022C0F50180818F7D883541F56180F2E068
:103DD000AF0EB11C872D8260782EC0E1D0E0C830D4
:103DE000D105F1F04CF4C230D10511F5C12CD12C24
:103DF000E12CB0E4FB2E2FC0CA30D10531F0C03128
:103E0000D10521F115C0209751F7CAE0D0E0ACEC04
:103E1000CA2EDC2CEC2CACE0FA2E1DC02097F9F653
:103E2000C8E0D0E0C12CD12CE12CF0E1FF2E13C072
:103E300060E070E080E090E89E01442737FD409507
:103E4000542F0E94481C69017A0105C0C12CD12C55
:103E5000E12CE8E0FE2EF50160E020E030E0A90171
:103E60004E01AA2497FCA094BA2C1F0170ED572E86
:103E7000560CA9E0A51570F48FEB860D8A3118F465
:103E800099EC592E06C08FE9860D8A3130F589EA02
:103E9000582E560C852D90E08C179D07F4F467FD85
:103EA00018C0C216D306E406F50680F0C501B401B9
:103EB0000E94241C9B01AC01250D311D411D511D8B
:103EC000213031054105B0E85B0710F06FEF01C00C
:103ED00061E03196D1016C90C8CF872D81700115BA
:103EE000110571F0662329F03197D801ED93FC9309
:103EF00007C071FE19C03297D801ED93FC9314C02E
:103F000067FF12C0882329F020E030E040E050E84D
:103F100004C02FEF3FEF4FEF5FE782E290E0909316
:103F2000B0048093AF0416C0882341F050954095AB
:103F3000309521953F4F4F4F5F4F0CC057FF0AC040
:103F400082E290E09093B0048093AF042FEF3FEFB4
:103F50004FEF5FE7B901CA0104C060E070E080E0A4
:103F600090E0DF91CF911F910F91FF90EF90DF9044
:103F7000CF90BF90AF909F908F907F906F905F9009
:103F80003F902F90089591114CC0803219F08950C4
:103F90008550D0F708959111089581548A5108F4FD
:103FA000805E855A0895FB01DC0102C001900D92EC
:103FB00041505040D8F70895FB01DC018D910190EC
:103FC00080190110D9F3990B0895FB01DC010190D0
:103FD0000D920020E1F708954532510520F442305A
:103FE00010F00C94F71FFB011082CB010895BB2742
:103FF000FB015527AA27880F991FAA1FA41710F0A5
:10400000A41B83955051B9F7A05DAA3308F0A95DB0
:10401000A193009779F7B111B1931192CB010C9450
:104020001420992788270895DC01FC01672F7191DE
:104030007723E1F7329704C07C916D93708362918E
:10404000AE17BF07C8F308952F923F924F925F9229
:104050006F927F928F929F92AF92BF92CF92DF9298
:10406000EF92FF920F931F93CF93DF93CDB7DEB7FD
:10407000CA1BDB0B0FB6F894DEBF0FBECDBF099491
:104080002A88398848885F846E847D848C849B84E8
:10409000AA84B984C884DF80EE80FD800C811B81F6
:1040A000AA81B981CE0FD11D0FB6F894DEBF0FBE25
:1040B000CDBFED01089511E0CAEDD1E004C0FE01CD
:1040C0000E946C1C2296CC3DD107C9F7F894FFCF13
:1040D0000000B5048000AD019A01B201B50179017B
:1040E000B701BA015701BC013A01BE0166726565AC
:1040F0004D656D6F72792800293D007472756500F9
:10410000746865726D6F6D65746572007468657250
:104110006D6F5800737461727448656174696E677D
:10412000006C696768744F6E006C696768744F66ED
:1041300066006C69676874537461746500657870B3
:104140006F73654D6574686F64730067657457615C
:104150007465725761737465537461746500746F2C
:104160006F206D7563682074696D6500636F6D6D98
:10417000616E6420746F6F206C6F6E6700465043F1
:104180002D004153006D004152005400740052450F
:10419000000000000018019316000000003001002C
:1041A0000000001B015E00BC00770122225C5C6203
:1041B00008660C6E0A720D7409006E756C6C004E08
:1041C000614E00496E66696E69747900652D0066FE
:1041D000616C7365000000000027159316A914C2D6
:1041E00014B41405150D0A006E616E00696E660048
:0641F0006F7666002E0050
:00000001FF
